{
  "contractName": "CoinToss",
  "abi": [
    {
      "anonymous": false,
      "inputs": [
        {
          "indexed": false,
          "internalType": "uint256",
          "name": "balAft",
          "type": "uint256"
        }
      ],
      "name": "BalanceAfter",
      "type": "event"
    },
    {
      "anonymous": false,
      "inputs": [
        {
          "indexed": false,
          "internalType": "uint256",
          "name": "balBef",
          "type": "uint256"
        }
      ],
      "name": "BalanceBefore",
      "type": "event"
    },
    {
      "anonymous": false,
      "inputs": [
        {
          "indexed": false,
          "internalType": "address",
          "name": "toAcc",
          "type": "address"
        },
        {
          "indexed": false,
          "internalType": "uint256",
          "name": "amount",
          "type": "uint256"
        }
      ],
      "name": "ContractBalWithdrawn",
      "type": "event"
    },
    {
      "anonymous": false,
      "inputs": [
        {
          "indexed": false,
          "internalType": "address",
          "name": "fromAcc",
          "type": "address"
        },
        {
          "indexed": false,
          "internalType": "uint256",
          "name": "amount",
          "type": "uint256"
        }
      ],
      "name": "DepositDone",
      "type": "event"
    },
    {
      "anonymous": false,
      "inputs": [
        {
          "indexed": false,
          "internalType": "uint256",
          "name": "result",
          "type": "uint256"
        }
      ],
      "name": "GeneratedNumber",
      "type": "event"
    },
    {
      "anonymous": false,
      "inputs": [
        {
          "indexed": false,
          "internalType": "string",
          "name": "description",
          "type": "string"
        },
        {
          "indexed": false,
          "internalType": "bytes32",
          "name": "_queryId",
          "type": "bytes32"
        }
      ],
      "name": "LogNewProvableQuery",
      "type": "event"
    },
    {
      "anonymous": false,
      "inputs": [
        {
          "indexed": true,
          "internalType": "address",
          "name": "player",
          "type": "address"
        },
        {
          "indexed": true,
          "internalType": "bytes32",
          "name": "_queryId",
          "type": "bytes32"
        },
        {
          "indexed": false,
          "internalType": "uint256",
          "name": "value",
          "type": "uint256"
        }
      ],
      "name": "PlayPlaced",
      "type": "event"
    },
    {
      "anonymous": false,
      "inputs": [
        {
          "indexed": false,
          "internalType": "address",
          "name": "fromAcc",
          "type": "address"
        },
        {
          "indexed": false,
          "internalType": "uint256",
          "name": "newBal",
          "type": "uint256"
        }
      ],
      "name": "PlayerDepositDone",
      "type": "event"
    },
    {
      "anonymous": false,
      "inputs": [
        {
          "indexed": false,
          "internalType": "address",
          "name": "toAcc",
          "type": "address"
        },
        {
          "indexed": false,
          "internalType": "uint256",
          "name": "amount",
          "type": "uint256"
        }
      ],
      "name": "Withdrawn",
      "type": "event"
    },
    {
      "anonymous": false,
      "inputs": [
        {
          "indexed": false,
          "internalType": "string",
          "name": "description",
          "type": "string"
        }
      ],
      "name": "callBackFailed",
      "type": "event"
    },
    {
      "anonymous": false,
      "inputs": [
        {
          "indexed": false,
          "internalType": "bytes32",
          "name": "_queryId",
          "type": "bytes32"
        },
        {
          "indexed": false,
          "internalType": "uint8",
          "name": "result",
          "type": "uint8"
        }
      ],
      "name": "callBackPassed",
      "type": "event"
    },
    {
      "constant": true,
      "inputs": [],
      "name": "MAX_INT_FROM_BYTE",
      "outputs": [
        {
          "internalType": "uint256",
          "name": "",
          "type": "uint256"
        }
      ],
      "payable": false,
      "stateMutability": "view",
      "type": "function"
    },
    {
      "constant": true,
      "inputs": [],
      "name": "NUM_RANDOM_BYTES_REQUESTED",
      "outputs": [
        {
          "internalType": "uint256",
          "name": "",
          "type": "uint256"
        }
      ],
      "payable": false,
      "stateMutability": "view",
      "type": "function"
    },
    {
      "constant": false,
      "inputs": [],
      "name": "close",
      "outputs": [],
      "payable": false,
      "stateMutability": "nonpayable",
      "type": "function"
    },
    {
      "constant": true,
      "inputs": [],
      "name": "owner",
      "outputs": [
        {
          "internalType": "address",
          "name": "",
          "type": "address"
        }
      ],
      "payable": false,
      "stateMutability": "view",
      "type": "function"
    },
    {
      "constant": true,
      "inputs": [
        {
          "internalType": "address",
          "name": "",
          "type": "address"
        }
      ],
      "name": "playInfo",
      "outputs": [
        {
          "internalType": "address payable",
          "name": "uAddress",
          "type": "address"
        },
        {
          "internalType": "uint256",
          "name": "uBalance",
          "type": "uint256"
        },
        {
          "internalType": "bool",
          "name": "inGame",
          "type": "bool"
        }
      ],
      "payable": false,
      "stateMutability": "view",
      "type": "function"
    },
    {
      "constant": true,
      "inputs": [
        {
          "internalType": "bytes32",
          "name": "",
          "type": "bytes32"
        }
      ],
      "name": "stateInfo",
      "outputs": [
        {
          "internalType": "address payable",
          "name": "player",
          "type": "address"
        },
        {
          "internalType": "uint256",
          "name": "value",
          "type": "uint256"
        },
        {
          "internalType": "uint256",
          "name": "result",
          "type": "uint256"
        },
        {
          "internalType": "bytes32",
          "name": "queryId",
          "type": "bytes32"
        }
      ],
      "payable": false,
      "stateMutability": "view",
      "type": "function"
    },
    {
      "constant": false,
      "inputs": [],
      "name": "addPlayerFunds",
      "outputs": [],
      "payable": true,
      "stateMutability": "payable",
      "type": "function"
    },
    {
      "constant": false,
      "inputs": [
        {
          "internalType": "uint256",
          "name": "value",
          "type": "uint256"
        }
      ],
      "name": "bet",
      "outputs": [],
      "payable": false,
      "stateMutability": "nonpayable",
      "type": "function"
    },
    {
      "constant": false,
      "inputs": [
        {
          "internalType": "address payable",
          "name": "player",
          "type": "address"
        },
        {
          "internalType": "uint256",
          "name": "value",
          "type": "uint256"
        }
      ],
      "name": "oracleRandom",
      "outputs": [],
      "payable": true,
      "stateMutability": "payable",
      "type": "function"
    },
    {
      "constant": false,
      "inputs": [
        {
          "internalType": "bytes32",
          "name": "_myid",
          "type": "bytes32"
        },
        {
          "internalType": "string",
          "name": "_result",
          "type": "string"
        }
      ],
      "name": "__callback",
      "outputs": [],
      "payable": false,
      "stateMutability": "nonpayable",
      "type": "function"
    },
    {
      "constant": false,
      "inputs": [
        {
          "internalType": "bytes32",
          "name": "_queryId",
          "type": "bytes32"
        },
        {
          "internalType": "string",
          "name": "_result",
          "type": "string"
        },
        {
          "internalType": "bytes",
          "name": "_proof",
          "type": "bytes"
        }
      ],
      "name": "__callback",
      "outputs": [],
      "payable": false,
      "stateMutability": "nonpayable",
      "type": "function"
    },
    {
      "constant": false,
      "inputs": [
        {
          "internalType": "uint8",
          "name": "result",
          "type": "uint8"
        },
        {
          "internalType": "bytes32",
          "name": "_queryId",
          "type": "bytes32"
        }
      ],
      "name": "processResult",
      "outputs": [],
      "payable": false,
      "stateMutability": "nonpayable",
      "type": "function"
    },
    {
      "constant": false,
      "inputs": [],
      "name": "reset",
      "outputs": [
        {
          "internalType": "bool",
          "name": "",
          "type": "bool"
        }
      ],
      "payable": false,
      "stateMutability": "nonpayable",
      "type": "function"
    },
    {
      "constant": true,
      "inputs": [],
      "name": "getBalance",
      "outputs": [
        {
          "internalType": "uint256",
          "name": "",
          "type": "uint256"
        }
      ],
      "payable": false,
      "stateMutability": "view",
      "type": "function"
    },
    {
      "constant": true,
      "inputs": [],
      "name": "getUserBalance",
      "outputs": [
        {
          "internalType": "uint256",
          "name": "",
          "type": "uint256"
        }
      ],
      "payable": false,
      "stateMutability": "view",
      "type": "function"
    },
    {
      "constant": false,
      "inputs": [],
      "name": "withdrawUserBalance",
      "outputs": [
        {
          "internalType": "uint256",
          "name": "",
          "type": "uint256"
        }
      ],
      "payable": false,
      "stateMutability": "nonpayable",
      "type": "function"
    },
    {
      "constant": false,
      "inputs": [],
      "name": "fund",
      "outputs": [],
      "payable": true,
      "stateMutability": "payable",
      "type": "function"
    },
    {
      "constant": false,
      "inputs": [],
      "name": "withdrawAll",
      "outputs": [
        {
          "internalType": "uint256",
          "name": "",
          "type": "uint256"
        }
      ],
      "payable": false,
      "stateMutability": "nonpayable",
      "type": "function"
    }
  ],
  "bytecode": "0x6080604052336000806101000a81548173ffffffffffffffffffffffffffffffffffffffff021916908373ffffffffffffffffffffffffffffffffffffffff16021790555061317b806100536000396000f3fe6080604052600436106101095760003560e01c806389257b3611610095578063bad983af11610064578063bad983af1461059d578063c368880a146105c8578063c44753e614610658578063d826f88f14610683578063e605d8d2146106b257610109565b806389257b36146104c95780638da5cb5b14610511578063b60d428814610568578063b7013dc11461057257610109565b806343d726d6116100dc57806343d726d61461039f5780635f0ae997146103b65780637365870b146104595780638492b70614610494578063853828b61461049e57610109565b806312065fe01461010e57806327dc297e1461013957806338bbfa501461020b5780634291b67b14610374575b600080fd5b34801561011a57600080fd5b50610123610700565b6040518082815260200191505060405180910390f35b34801561014557600080fd5b506102096004803603604081101561015c57600080fd5b81019080803590602001909291908035906020019064010000000081111561018357600080fd5b82018360208201111561019557600080fd5b803590602001918460018302840111640100000000831117156101b757600080fd5b91908080601f016020809104026020016040519081016040528093929190818152602001838380828437600081840152601f19601f82011690508083019250505050505050919291929050505061071f565b005b34801561021757600080fd5b506103726004803603606081101561022e57600080fd5b81019080803590602001909291908035906020019064010000000081111561025557600080fd5b82018360208201111561026757600080fd5b8035906020019184600183028401116401000000008311171561028957600080fd5b91908080601f016020809104026020016040519081016040528093929190818152602001838380828437600081840152601f19601f820116905080830192505050505050509192919290803590602001906401000000008111156102ec57600080fd5b8201836020820111156102fe57600080fd5b8035906020019184600183028401116401000000008311171561032057600080fd5b91908080601f016020809104026020016040519081016040528093929190818152602001838380828437600081840152601f19601f820116905080830192505050505050509192919290505050610762565b005b34801561038057600080fd5b5061038961093f565b6040518082815260200191505060405180910390f35b3480156103ab57600080fd5b506103b4610945565b005b3480156103c257600080fd5b50610405600480360360208110156103d957600080fd5b81019080803573ffffffffffffffffffffffffffffffffffffffff169060200190929190505050610a25565b604051808473ffffffffffffffffffffffffffffffffffffffff1673ffffffffffffffffffffffffffffffffffffffff16815260200183815260200182151515158152602001935050505060405180910390f35b34801561046557600080fd5b506104926004803603602081101561047c57600080fd5b8101908080359060200190929190505050610a7c565b005b61049c610ce2565b005b3480156104aa57600080fd5b506104b36110d9565b6040518082815260200191505060405180910390f35b3480156104d557600080fd5b5061050f600480360360408110156104ec57600080fd5b81019080803560ff16906020019092919080359060200190929190505050611283565b005b34801561051d57600080fd5b50610526611505565b604051808273ffffffffffffffffffffffffffffffffffffffff1673ffffffffffffffffffffffffffffffffffffffff16815260200191505060405180910390f35b61057061152a565b005b34801561057e57600080fd5b5061058761170a565b6040518082815260200191505060405180910390f35b3480156105a957600080fd5b506105b2611754565b6040518082815260200191505060405180910390f35b3480156105d457600080fd5b50610601600480360360208110156105eb57600080fd5b8101908080359060200190929190505050611a00565b604051808573ffffffffffffffffffffffffffffffffffffffff1673ffffffffffffffffffffffffffffffffffffffff16815260200184815260200183815260200182815260200194505050505060405180910390f35b34801561066457600080fd5b5061066d611a50565b6040518082815260200191505060405180910390f35b34801561068f57600080fd5b50610698611a55565b604051808215151515815260200191505060405180910390f35b6106fe600480360360408110156106c857600080fd5b81019080803573ffffffffffffffffffffffffffffffffffffffff16906020019092919080359060200190929190505050611ab4565b005b60003073ffffffffffffffffffffffffffffffffffffffff1631905090565b61075e828260006040519080825280601f01601f1916602001820160405280156107585781602001600182028038833980820191505090505b50610762565b5050565b600061076f848484611c42565b60ff16146107e4577f1e4bf9681a4be7863fccfada435beaad7898596ff4fb67cb4b05f3a6949da53360405180806020018281038252600f8152602001807f43616c6c6261636b206661696c6564000000000000000000000000000000000081525060200191505060405180910390a161093a565b6000826040516020018082805190602001908083835b6020831061081d57805182526020820191506020810190506020830392506107fa565b6001836020036101000a0380198251168184511680821785525050505050509050019150506040516020818303038152906040528051906020012060001c90506000610873600283611d7290919063ffffffff16565b90508060ff16600760008781526020019081526020016000206002018190555061089d8186611283565b7f4e86f5fbc6e90c5e74892ea6f0888079f5f99122825931c8dd156d43c86daaba8582604051808381526020018260ff1660ff1681526020019250505060405180910390a160076000868152602001908152602001600020600080820160006101000a81549073ffffffffffffffffffffffffffffffffffffffff0219169055600182016000905560028201600090556003820160009055505050505b505050565b61010081565b6000809054906101000a900473ffffffffffffffffffffffffffffffffffffffff1673ffffffffffffffffffffffffffffffffffffffff163373ffffffffffffffffffffffffffffffffffffffff1614610a07576040517f08c379a00000000000000000000000000000000000000000000000000000000081526004018080602001828103825260198152602001807f6f6e6c792061636365737320666f7220746865206f776e65720000000000000081525060200191505060405180910390fd5b60003390508073ffffffffffffffffffffffffffffffffffffffff16ff5b60086020528060005260406000206000915090508060000160009054906101000a900473ffffffffffffffffffffffffffffffffffffffff16908060010154908060020160009054906101000a900460ff16905083565b60001515600860003373ffffffffffffffffffffffffffffffffffffffff1673ffffffffffffffffffffffffffffffffffffffff16815260200190815260200160002060020160009054906101000a900460ff16151514610b45576040517f08c379a000000000000000000000000000000000000000000000000000000000815260040180806020018281038252601c8152602001807f5761697420666f722066756e6374696f6e20746f2070726f636573730000000081525060200191505060405180910390fd5b6001600860003373ffffffffffffffffffffffffffffffffffffffff1673ffffffffffffffffffffffffffffffffffffffff16815260200190815260200160002060020160006101000a81548160ff0219169083151502179055506000600860003373ffffffffffffffffffffffffffffffffffffffff1673ffffffffffffffffffffffffffffffffffffffff1681526020019081526020016000206001015490507f0a590c12dea7c3a50037a1d1a3d9ff9ba74fe130f3428319478b31ef6199e228816040518082815260200191505060405180910390a1610c7382600860003373ffffffffffffffffffffffffffffffffffffffff1673ffffffffffffffffffffffffffffffffffffffff16815260200190815260200160002060010154611dbc90919063ffffffff16565b600860003373ffffffffffffffffffffffffffffffffffffffff1673ffffffffffffffffffffffffffffffffffffffff16815260200190815260200160002060010181905550610cce82600654611e0690919063ffffffff16565b600681905550610cde3383611ab4565b5050565b67016345785d8a000080341015610d61576040517f08c379a00000000000000000000000000000000000000000000000000000000081526004018080602001828103825260148152602001807f4e6f7420656e6f756768204554482073656e742100000000000000000000000081525060200191505060405180910390fd5b60003411610dd7576040517f08c379a000000000000000000000000000000000000000000000000000000000815260040180806020018281038252600e8152602001807f416d6f756e7420746f6f206c6f7700000000000000000000000000000000000081525060200191505060405180910390fd5b610ddf613035565b33816000019073ffffffffffffffffffffffffffffffffffffffff16908173ffffffffffffffffffffffffffffffffffffffff1681525050600860003373ffffffffffffffffffffffffffffffffffffffff1673ffffffffffffffffffffffffffffffffffffffff16815260200190815260200160002060010154816020018181525050600860003373ffffffffffffffffffffffffffffffffffffffff1673ffffffffffffffffffffffffffffffffffffffff16815260200190815260200160002060020160009054906101000a900460ff1681604001901515908115158152505080600860003373ffffffffffffffffffffffffffffffffffffffff1673ffffffffffffffffffffffffffffffffffffffff16815260200190815260200160002060008201518160000160006101000a81548173ffffffffffffffffffffffffffffffffffffffff021916908373ffffffffffffffffffffffffffffffffffffffff1602179055506020820151816001015560408201518160020160006101000a81548160ff02191690831515021790555090505034600860003373ffffffffffffffffffffffffffffffffffffffff1673ffffffffffffffffffffffffffffffffffffffff168152602001908152602001600020600101600082825401925050819055507f02a3340732c2a9d6e01ca6a8a88b55044de0108a1e9155f12482b10a3cb63fec600860003373ffffffffffffffffffffffffffffffffffffffff1673ffffffffffffffffffffffffffffffffffffffff16815260200190815260200160002060000160009054906101000a900473ffffffffffffffffffffffffffffffffffffffff16600860003373ffffffffffffffffffffffffffffffffffffffff1673ffffffffffffffffffffffffffffffffffffffff16815260200190815260200160002060010154604051808373ffffffffffffffffffffffffffffffffffffffff1673ffffffffffffffffffffffffffffffffffffffff1681526020018281526020019250505060405180910390a15050565b60008060009054906101000a900473ffffffffffffffffffffffffffffffffffffffff1673ffffffffffffffffffffffffffffffffffffffff163373ffffffffffffffffffffffffffffffffffffffff161461119d576040517f08c379a00000000000000000000000000000000000000000000000000000000081526004018080602001828103825260198152602001807f6f6e6c792061636365737320666f7220746865206f776e65720000000000000081525060200191505060405180910390fd5b6000600654905060006006819055503373ffffffffffffffffffffffffffffffffffffffff166108fc829081150290604051600060405180830381858888f193505050501580156111f2573d6000803e3d6000fd5b507fd3dc84e103093322aa072de03f3620c568ebe1992a39eb87377ca70d952aef5d6000809054906101000a900473ffffffffffffffffffffffffffffffffffffffff1682604051808373ffffffffffffffffffffffffffffffffffffffff1673ffffffffffffffffffffffffffffffffffffffff1681526020018281526020019250505060405180910390a15090565b60006007600083815260200190815260200160002060000160009054906101000a900473ffffffffffffffffffffffffffffffffffffffff1690506000600860008373ffffffffffffffffffffffffffffffffffffffff1673ffffffffffffffffffffffffffffffffffffffff16815260200190815260200160002060020160006101000a81548160ff021916908315150217905550600060076000848152602001908152602001600020600101549050600061134a600283611e8e90919063ffffffff16565b905060018560ff161415611429576113ad81600860008673ffffffffffffffffffffffffffffffffffffffff1673ffffffffffffffffffffffffffffffffffffffff16815260200190815260200160002060010154611e0690919063ffffffff16565b600860008573ffffffffffffffffffffffffffffffffffffffff1673ffffffffffffffffffffffffffffffffffffffff1681526020019081526020016000206001018190555061140881600654611dbc90919063ffffffff16565b5060008560ff16148061141e575060018560ff16145b61142457fe5b611445565b60008560ff16148061143e575060018560ff16145b61144457fe5b5b6000600860008573ffffffffffffffffffffffffffffffffffffffff1673ffffffffffffffffffffffffffffffffffffffff1681526020019081526020016000206001015490507faf6141eb3373fd564c07296ba42ddb014d5d40fb23770fd5dfd4956e9023db0e816040518082815260200191505060405180910390a17f10c1de1966c08b5560bca13edbe0d305e0456e19ee6cdf80c318dfe8ed4cce4986604051808260ff16815260200191505060405180910390a1505050505050565b6000809054906101000a900473ffffffffffffffffffffffffffffffffffffffff1681565b6000809054906101000a900473ffffffffffffffffffffffffffffffffffffffff1673ffffffffffffffffffffffffffffffffffffffff163373ffffffffffffffffffffffffffffffffffffffff16146115ec576040517f08c379a00000000000000000000000000000000000000000000000000000000081526004018080602001828103825260198152602001807f6f6e6c792061636365737320666f7220746865206f776e65720000000000000081525060200191505060405180910390fd5b6706f05b59d3b200008034101561166b576040517f08c379a00000000000000000000000000000000000000000000000000000000081526004018080602001828103825260148152602001807f4e6f7420656e6f756768204554482073656e742100000000000000000000000081525060200191505060405180910390fd5b346006600082825401925050819055507f5c5c52faf0379d6438710fab5583f7bf4001bbc1c48b855499e7f9a7183e0fec6000809054906101000a900473ffffffffffffffffffffffffffffffffffffffff1634604051808373ffffffffffffffffffffffffffffffffffffffff1673ffffffffffffffffffffffffffffffffffffffff1681526020018281526020019250505060405180910390a150565b6000600860003373ffffffffffffffffffffffffffffffffffffffff1673ffffffffffffffffffffffffffffffffffffffff16815260200190815260200160002060010154905090565b6000801515600860003373ffffffffffffffffffffffffffffffffffffffff1673ffffffffffffffffffffffffffffffffffffffff16815260200190815260200160002060020160009054906101000a900460ff161515146117b557600080fd5b6000600860003373ffffffffffffffffffffffffffffffffffffffff1673ffffffffffffffffffffffffffffffffffffffff168152602001908152602001600020600101541161186d576040517f08c379a00000000000000000000000000000000000000000000000000000000081526004018080602001828103825260148152602001807f4e6f7468696e6720746f2077697468647261772e00000000000000000000000081525060200191505060405180910390fd5b6000600860003373ffffffffffffffffffffffffffffffffffffffff1673ffffffffffffffffffffffffffffffffffffffff1681526020019081526020016000206001015490506000600860003373ffffffffffffffffffffffffffffffffffffffff1673ffffffffffffffffffffffffffffffffffffffff168152602001908152602001600020600101819055503373ffffffffffffffffffffffffffffffffffffffff166108fc829081150290604051600060405180830381858888f19350505050158015611942573d6000803e3d6000fd5b50600860003373ffffffffffffffffffffffffffffffffffffffff1673ffffffffffffffffffffffffffffffffffffffff16815260200190815260200160002060010154600654101561199157fe5b7f7084f5476618d8e60b11ef0d7d3f06914655adb8793e28ff7f018d4c76d505d53382604051808373ffffffffffffffffffffffffffffffffffffffff1673ffffffffffffffffffffffffffffffffffffffff1681526020018281526020019250505060405180910390a15090565b60076020528060005260406000206000915090508060000160009054906101000a900473ffffffffffffffffffffffffffffffffffffffff16908060010154908060020154908060030154905084565b600181565b600080600860003373ffffffffffffffffffffffffffffffffffffffff1673ffffffffffffffffffffffffffffffffffffffff16815260200190815260200160002060020160006101000a81548160ff02191690831515021790555090565b6000611abe611f14565b9050611ac861306e565b33816000019073ffffffffffffffffffffffffffffffffffffffff16908173ffffffffffffffffffffffffffffffffffffffff16815250508281602001818152505080604001515081816060018181525050806007600084815260200190815260200160002060008201518160000160006101000a81548173ffffffffffffffffffffffffffffffffffffffff021916908373ffffffffffffffffffffffffffffffffffffffff160217905550602082015181600101556040820151816002015560608201518160030155905050818473ffffffffffffffffffffffffffffffffffffffff167f90a83f45677b8c0e2bba0e0c86ae47dd911a5d54780433f3efea704f8b9b45b983602001516040518082815260200191505060405180910390a37f03f87726502eec329641d0b704cac4f62e20440c8e341563a08a35b50dc0c20f82604051808060200183815260200182810382526036815260200180613111603691396040019250505060405180910390a150505050565b60007f4c0000000000000000000000000000000000000000000000000000000000000082600081518110611c7257fe5b602001015160f81c60f81b7effffffffffffffffffffffffffffffffffffffffffffffffffffffffffffff1916141580611d0557507f500000000000000000000000000000000000000000000000000000000000000082600181518110611cd557fe5b602001015160f81c60f81b7effffffffffffffffffffffffffffffffffffffffffffffffffffffffffffff191614155b80611d315750600160ff1682600281518110611d1d57fe5b602001015160f81c60f81b60f81c60ff1614155b15611d3f5760019050611d6b565b6000611d54838686611d4f61203e565b6120e0565b905080611d65576002915050611d6b565b60009150505b9392505050565b6000611db483836040518060400160405280601881526020017f536166654d6174683a206d6f64756c6f206279207a65726f000000000000000081525061278b565b905092915050565b6000611dfe83836040518060400160405280601e81526020017f536166654d6174683a207375627472616374696f6e206f766572666c6f77000081525061284c565b905092915050565b600080828401905083811015611e84576040517f08c379a000000000000000000000000000000000000000000000000000000000815260040180806020018281038252601b8152602001807f536166654d6174683a206164646974696f6e206f766572666c6f77000000000081525060200191505060405180910390fd5b8091505092915050565b600080831415611ea15760009050611f0e565b6000828402905082848281611eb257fe5b0414611f09576040517f08c379a00000000000000000000000000000000000000000000000000000000081526004018080602001828103825260218152602001806130b06021913960400191505060405180910390fd5b809150505b92915050565b60008033604051602001808273ffffffffffffffffffffffffffffffffffffffff1673ffffffffffffffffffffffffffffffffffffffff1660601b8152601401915050604051602081830303815290604052805190602001209050611fe4816040518060400160405280600181526020017f31000000000000000000000000000000000000000000000000000000000000008152506040518060400160405280600481526020017f7465737400000000000000000000000000000000000000000000000000000000815250610762565b7f03f87726502eec329641d0b704cac4f62e20440c8e341563a08a35b50dc0c20f81604051808060200183815260200182810382526036815260200180613111603691396040019250505060405180910390a18091505090565b606060038054600181600116156101000203166002900480601f0160208091040260200160405190810160405280929190818152602001828054600181600116156101000203166002900480156120d65780601f106120ab576101008083540402835291602001916120d6565b820191906000526020600020905b8154815290600101906020018083116120b957829003601f168201915b5050505050905090565b60008060206002876045815181106120f457fe5b602001015160f81c60f81b60f81c60ff1601604401019050606060206040519080825280601f01601f1916602001820160405280156121425781602001600182028038833980820191505090505b5090506121548783602084600061290c565b50600284876040516020018083805190602001908083835b6020831061218f578051825260208201915060208101905060208303925061216c565b6001836020036101000a038019825116818451168082178552505050505050905001828152602001925050506040516020818303038152906040526040518082805190602001908083835b602083106121fd57805182526020820191506020810190506020830392506121da565b6001836020036101000a038019825116818451168082178552505050505050905001915050602060405180830381855afa15801561223f573d6000803e3d6000fd5b5050506040513d602081101561225457600080fd5b810190808051906020019092919050505060405160200180828152602001915050604051602081830303815290604052805190602001208180519060200120146122a357600092505050612783565b606060028860016049860101815181106122b957fe5b602001015160f81c60f81b60f81c60ff16016040519080825280601f01601f1916602001820160405280156122fd5781602001600182028038833980820191505090505b5090506123128860498501835184600061290c565b506123dd6002826040518082805190602001908083835b6020831061234c5780518252602082019150602081019050602083039250612329565b6001836020036101000a038019825116818451168082178552505050505050905001915050602060405180830381855afa15801561238e573d6000803e3d6000fd5b5050506040513d60208110156123a357600080fd5b8101908080519060200190929190505050878a60086020880101815181106123c757fe5b602001015160f81c60f81b60f81c60ff1661296b565b6123ed5760009350505050612783565b606060296040519080825280601f01601f1916602001820160405280156124235781602001600182028038833980820191505090505b5090506124388960208601602984600061290c565b506060604080519080825280601f01601f19166020018201604052801561246e5781602001600182028038833980820191505090505b50905060006041845160296020890101010190506124948b60408303604085600061290c565b5060006002836040518082805190602001908083835b602083106124cd57805182526020820191506020810190506020830392506124aa565b6001836020036101000a038019825116818451168082178552505050505050905001915050602060405180830381855afa15801561250f573d6000803e3d6000fd5b5050506040513d602081101561252457600080fd5b8101908080519060200190929190505050905083816040516020018083805190602001908083835b6020831061256f578051825260208201915060208101905060208303925061254c565b6001836020036101000a0380198251168184511680821785525050505050509050018281526020019250505060405160208183030381529060405280519060200120600460008d81526020019081526020016000205414156125e757600460008c8152602001908152602001600020600090556125f7565b6000975050505050505050612783565b606060496040519080825280601f01601f19166020018201604052801561262d5781602001600182028038833980820191505090505b50905061263f8d89604984600061290c565b506126e86002826040518082805190602001908083835b602083106126795780518252602082019150602081019050602083039250612656565b6001836020036101000a038019825116818451168082178552505050505050905001915050602060405180830381855afa1580156126bb573d6000803e3d6000fd5b5050506040513d60208110156126d057600080fd5b81019080805190602001909291905050508786612a1b565b6126fd57600098505050505050505050612783565b6005600083815260200190815260200160002060009054906101000a900460ff166127575761272c8d84612bd9565b6005600084815260200190815260200160002060006101000a81548160ff0219169083151502179055505b6005600083815260200190815260200160002060009054906101000a900460ff16985050505050505050505b949350505050565b6000808314158290612838576040517f08c379a00000000000000000000000000000000000000000000000000000000081526004018080602001828103825283818151815260200191508051906020019080838360005b838110156127fd5780820151818401526020810190506127e2565b50505050905090810190601f16801561282a5780820380516001836020036101000a031916815260200191505b509250505060405180910390fd5b5082848161284257fe5b0690509392505050565b60008383111582906128f9576040517f08c379a00000000000000000000000000000000000000000000000000000000081526004018080602001828103825283818151815260200191508051906020019080838360005b838110156128be5780820151818401526020810190506128a3565b50505050905090810190601f1680156128eb5780820380516001836020036101000a031916815260200191505b509250505060405180910390fd5b5060008385039050809150509392505050565b606060008285019050808451101561292357600080fd5b600086602001905060008460200190505b86886020010182101561295c5781890151808288015250602082019150602081019050612934565b85935050505095945050505050565b600080600190508284511461297f57600080fd5b60008090505b83811015612a0f5784818151811061299957fe5b602001015160f81c60f81b7effffffffffffffffffffffffffffffffffffffffffffffffffffffffffffff19168682602081106129d257fe5b1a60f81b7effffffffffffffffffffffffffffffffffffffffffffffffffffffffffffff191614612a0257600091505b8080600101915050612985565b50809150509392505050565b6000806000806000606060206040519080825280601f01601f191660200182016040528015612a595781602001600182028038833980820191505090505b5090506000602089600381518110612a6d57fe5b602001015160f81c60f81b60f81c60ff16036004019050612a938982602085600061290c565b9150606060206040519080825280601f01601f191660200182016040528015612acb5781602001600182028038833980820191505090505b509050602282019150612b078a60208c6001860381518110612ae957fe5b602001015160f81c60f81b60f81c60ff16038401602084600061290c565b90506020830151945060208101519350612b248b601b8787612ff1565b80975081985050508573ffffffffffffffffffffffffffffffffffffffff16898051906020012060001c73ffffffffffffffffffffffffffffffffffffffff161415612b7a576001975050505050505050612bd2565b612b878b601c8787612ff1565b80975081985050508573ffffffffffffffffffffffffffffffffffffffff16898051906020012060001c73ffffffffffffffffffffffffffffffffffffffff16149750505050505050505b9392505050565b60008060606002856001860181518110612bef57fe5b602001015160f81c60f81b60f81c60ff16016040519080825280601f01601f191660200182016040528015612c335781602001600182028038833980820191505090505b509050612c458585835184600061290c565b506060604080519080825280601f01601f191660200182016040528015612c7b5781602001600182028038833980820191505090505b509050612c8e866004604084600061290c565b50606060626040519080825280601f01601f191660200182016040528015612cc55781602001600182028038833980820191505090505b509050600160f81b81600081518110612cda57fe5b60200101907effffffffffffffffffffffffffffffffffffffffffffffffffffffffffffff1916908160001a905350612d1b8760418803604184600161290c565b5060606040518060400160405280602081526020017ffd94fa71bc0ba10d39d464d0d8f465efeef0a2764e3887fcc9df41ded20f505c8152509050612d66816000602085604261290c565b50612e0f6002836040518082805190602001908083835b60208310612da05780518252602082019150602081019050602083039250612d7d565b6001836020036101000a038019825116818451168082178552505050505050905001915050602060405180830381855afa158015612de2573d6000803e3d6000fd5b5050506040513d6020811015612df757600080fd5b81019080805190602001909291905050508585612a1b565b945084612e2457600095505050505050612feb565b60606040518060600160405280604081526020016130d1604091399050606060426040519080825280601f01601f191660200182016040528015612e775781602001600182028038833980820191505090505b50905060fe60f81b81600081518110612e8c57fe5b60200101907effffffffffffffffffffffffffffffffffffffffffffffffffffffffffffff1916908160001a905350612ecb8a6003604184600161290c565b50606060028b604581518110612edd57fe5b602001015160f81c60f81b60f81c60ff16016040519080825280601f01601f191660200182016040528015612f215781602001600182028038833980820191505090505b509050612f348b6044835184600061290c565b50612fdd6002836040518082805190602001908083835b60208310612f6e5780518252602082019150602081019050602083039250612f4b565b6001836020036101000a038019825116818451168082178552505050505050905001915050602060405180830381855afa158015612fb0573d6000803e3d6000fd5b5050506040513d6020811015612fc557600080fd5b81019080805190602001909291905050508285612a1b565b975087985050505050505050505b92915050565b60008060008060405188815287602082015286604082015285606082015260208160808360006001610bb8f192508051915050818193509350505094509492505050565b6040518060600160405280600073ffffffffffffffffffffffffffffffffffffffff168152602001600081526020016000151581525090565b6040518060800160405280600073ffffffffffffffffffffffffffffffffffffffff168152602001600081526020016000815260200160008019168152509056fe536166654d6174683a206d756c7469706c69636174696f6e206f766572666c6f777fb956469c5c9b89840d55b43537e66a98dd4811ea0a27224272c2e5622911e8537a2f8e86a46baec82864e98dd01e9ccc2f8bc5dfc9cbe5a91a290498dd96e450726f7661626c65207175657279207761732073656e742c207374616e64696e6720627920666f722074686520616e737765722e2e2ea265627a7a723158205138ac6283d2d93e20cd40c60e5a2507c040ea89632ba652294ae2711a6f842964736f6c634300050c0032",
  "source": "pragma solidity 0.5.12;\n\nimport \"./Ownable.sol\";\nimport \"./Destroyable.sol\";\nimport \"./provableAPI.sol\";\nimport \"./SafeMath.sol\";\n\ncontract CoinToss is Ownable, usingProvable, Destroyable {\n\n  using SafeMath for uint256;   //@Version for Testing\n\n  uint256 internal balance;\n\n  modifier betFunding(uint minAmount){\n    require(msg.value >= minAmount,\"Not enough ETH sent!\");\n        _;\n    }\n\n  modifier contractFunding(uint minAmount){\n    require(msg.value >= minAmount,\"Not enough ETH sent!\");\n        _;\n    }\n//@State of game\n  struct State {\n    address payable player;\n    uint256 value;\n    uint256 result;\n    bytes32 queryId;\n  }\n  //@Information about player\n  struct Play {\n    address payable uAddress;\n    uint256 uBalance;\n    bool inGame;\n  }\n\n  uint256 public constant MAX_INT_FROM_BYTE = 256;\n  uint256 public constant NUM_RANDOM_BYTES_REQUESTED = 1;\n\n  mapping(bytes32 => State) public stateInfo;\n  mapping(address => Play) public playInfo;\n\n  event PlayerDepositDone(address fromAcc, uint256 newBal);\n  event BalanceBefore (uint256 balBef);\n  event PlayPlaced(address indexed player, bytes32 indexed _queryId, uint256 value);\n  event LogNewProvableQuery(string description, bytes32 _queryId);\n  event callBackFailed(string description);\n  event callBackPassed(bytes32 _queryId, uint8 result);\n  event BalanceAfter(uint256 balAft);\n  event GeneratedNumber(uint256 result);\n  event Withdrawn(address toAcc, uint256 amount);\n  event DepositDone(address fromAcc,uint256 amount);\n  event ContractBalWithdrawn(address toAcc, uint256 amount);\n\n  // constructor() public {\n  //    balance = 0;\n  //    provable_setProof(proofType_Ledger);\n  //    }\n//@Add funds and create Play struct\n  function addPlayerFunds() public payable betFunding (0.1 ether) {\n    require (msg.value > 0  , \"Amount too low\");\n    Play memory newPlay;\n    newPlay.uAddress = msg.sender;\n    newPlay.uBalance = playInfo[msg.sender].uBalance;\n    newPlay.inGame = playInfo[msg.sender].inGame;\n    playInfo[msg.sender] = newPlay;\n    playInfo[msg.sender].uBalance += msg.value;\n    emit PlayerDepositDone(playInfo[msg.sender].uAddress, playInfo[msg.sender].uBalance);\n  }\n//@Put value and initiate bet after checks\n  function bet(uint256 value) public {\n\n    require(playInfo[msg.sender].inGame == false, \"Wait for function to process\");\n    playInfo[msg.sender].inGame = true;\n\n    uint256 balBefore = playInfo[msg.sender].uBalance;\n    emit BalanceBefore(balBefore);\n    playInfo[msg.sender].uBalance = playInfo[msg.sender].uBalance.sub(value);\n    balance = balance.add(value);\n\n\n\n    oracleRandom(msg.sender, value);\n  }\n  //@Request number and create State struct\n   function oracleRandom(address payable player, uint256 value) public payable {\n\n     //uint256 QUERY_EXECUTION_DELAY = 0;\n     //uint256 GAS_FOR_CALLBACK = 200000;\n     bytes32 _queryId = testRandom();\n     //    bytes32 _queryId = provable_newRandomDSQuery(\n     //        QUERY_EXECUTION_DELAY,\n     //        NUM_RANDOM_BYTES_REQUESTED,\n     //        GAS_FOR_CALLBACK\n     // );\n\n    State memory newState;\n    newState.player = msg.sender;\n    newState.value = value;\n    newState.result;\n    newState.queryId = _queryId;\n\n    stateInfo[_queryId] = newState;\n\n    emit PlayPlaced(player, _queryId, newState.value);\n    emit LogNewProvableQuery(\"Provable query was sent, standing by for the answer...\", _queryId);\n   }\n//@Call back with random number from infura.io\n  function __callback(bytes32 _queryId,string memory _result,bytes memory _proof) public {\n    //require(msg.sender == provable_cbAddress());\n\n    if (provable_randomDS_proofVerify__returnCode(\n                _queryId,\n                _result,\n                _proof\n            ) != 0\n        ) {\n            emit callBackFailed(\"Callback failed\");\n        } else {\n\n\n    uint256 firstResult = uint256(keccak256(abi.encodePacked(_result)));\n    uint8 result = uint8(firstResult.mod(2));\n    stateInfo[_queryId].result = result;\n    processResult(result, _queryId);\n    emit callBackPassed(_queryId, result);\n    delete stateInfo[_queryId];\n  }\n}\n//@Processing result of the game\n  function processResult(uint8 result, bytes32 _queryId) public {\n\n    address payable _player = stateInfo[_queryId].player;\n    playInfo[_player].inGame = false;\n    uint256 _value = stateInfo[_queryId].value;\n    uint256 payout = _value.mul(2);\n\n    if (result == 1){\n      playInfo[_player].uBalance = playInfo[_player].uBalance.add(payout);\n      balance.sub(payout);\n      assert(result == 0 || result == 1);\n    } else {\n      assert(result == 0 || result == 1);\n    }\n\n    uint256 balAfter = playInfo[_player].uBalance;\n    emit BalanceAfter(balAfter);\n    emit GeneratedNumber(result);\n  }\n  //@Only for testing\n  function reset() public returns (bool){\n    playInfo[msg.sender].inGame = false;\n  }\n  //@Balance of contract by default\n  function getBalance() public view returns (uint256){\n    return address(this).balance;\n  }\n  //@Balance of user, saved in Play struct\n  function getUserBalance() public view returns (uint256){\n    return playInfo[msg.sender].uBalance;\n  }\n  //@Withdraw all user Balance from Smart Contract\n  function withdrawUserBalance() public returns (uint256){\n    require(playInfo[msg.sender].inGame == false);\n    require(playInfo[msg.sender].uBalance > 0, \"Nothing to withdraw.\");\n    uint u = playInfo[msg.sender].uBalance;\n    playInfo[msg.sender].uBalance = 0;\n    msg.sender.transfer(u);\n\n    assert(balance >= playInfo[msg.sender].uBalance);\n    emit Withdrawn(msg.sender, u);\n  }\n  //@Fund contact as a Owner\n  function fund() public payable onlyOwner contractFunding (0.5 ether){\n    balance += msg.value;\n    emit DepositDone(owner, msg.value);\n  }\n  //@Withdrawall contact balance\n  function withdrawAll() public onlyOwner returns (uint256){\n    uint toTransfer = balance;\n    balance = 0;\n    msg.sender.transfer(toTransfer);\n    emit ContractBalWithdrawn(owner, toTransfer);\n  }\n//@Only for testing\n  function testRandom() private returns (bytes32){\n    bytes32 _queryId = bytes32(keccak256(abi.encodePacked(msg.sender)));\n    __callback(_queryId, \"1\", bytes(\"test\"));\n    emit LogNewProvableQuery(\"Provable query was sent, standing by for the answer...\", _queryId);\n    return _queryId;\n  }\n  // function testRandom() private view returns (uint8) {\n\t// \tuint256 firstRes = uint256(keccak256(abi.encodePacked()));\n\t// \tuint8 result = uint8(firstRes.mod(251));\n\t// \treturn result;\n  //   }\n}\n",
  "sourcePath": "/home/bipp/CoinToss/FinalForTesting/CoinTossFinal/contracts/CoinToss.sol",
  "compiler": {
    "name": "solc",
    "version": "0.5.12+commit.7709ece9.Emscripten.clang"
  },
  "schemaVersion": "3.0.19",
  "updatedAt": "2020-12-31T18:00:01.884Z",
  "devdoc": {
    "methods": {
      "__callback(bytes32,string)": {
        "details": "The following `__callback` functions are just placeholders ideally     meant to be defined in child contract when proofs are used.     The function bodies simply silence compiler warnings."
      }
    }
  },
  "userdoc": {
    "methods": {}
  }
}