{
  "contractName": "CoinToss",
  "abi": [
    {
      "inputs": [],
      "payable": true,
      "stateMutability": "payable",
      "type": "constructor"
    },
    {
      "anonymous": false,
      "inputs": [
        {
          "indexed": false,
          "internalType": "uint256",
          "name": "balAft",
          "type": "uint256"
        }
      ],
      "name": "BalanceAfter",
      "type": "event"
    },
    {
      "anonymous": false,
      "inputs": [
        {
          "indexed": false,
          "internalType": "uint256",
          "name": "balBef",
          "type": "uint256"
        }
      ],
      "name": "BalanceBefore",
      "type": "event"
    },
    {
      "anonymous": false,
      "inputs": [
        {
          "indexed": false,
          "internalType": "address",
          "name": "fromAcc",
          "type": "address"
        },
        {
          "indexed": false,
          "internalType": "uint256",
          "name": "amount",
          "type": "uint256"
        }
      ],
      "name": "DepositDone",
      "type": "event"
    },
    {
      "anonymous": false,
      "inputs": [
        {
          "indexed": false,
          "internalType": "uint256",
          "name": "result",
          "type": "uint256"
        }
      ],
      "name": "GeneratedNumber",
      "type": "event"
    },
    {
      "anonymous": false,
      "inputs": [
        {
          "indexed": false,
          "internalType": "string",
          "name": "description",
          "type": "string"
        },
        {
          "indexed": false,
          "internalType": "bytes32",
          "name": "_queryId",
          "type": "bytes32"
        }
      ],
      "name": "LogNewProvableQuery",
      "type": "event"
    },
    {
      "anonymous": false,
      "inputs": [
        {
          "indexed": true,
          "internalType": "address",
          "name": "player",
          "type": "address"
        },
        {
          "indexed": true,
          "internalType": "bytes32",
          "name": "_queryId",
          "type": "bytes32"
        },
        {
          "indexed": false,
          "internalType": "uint256",
          "name": "value",
          "type": "uint256"
        }
      ],
      "name": "PlayPlaced",
      "type": "event"
    },
    {
      "anonymous": false,
      "inputs": [
        {
          "indexed": false,
          "internalType": "address",
          "name": "fromAcc",
          "type": "address"
        },
        {
          "indexed": false,
          "internalType": "uint256",
          "name": "newBal",
          "type": "uint256"
        }
      ],
      "name": "PlayerDepositDone",
      "type": "event"
    },
    {
      "anonymous": false,
      "inputs": [
        {
          "indexed": false,
          "internalType": "address",
          "name": "toAcc",
          "type": "address"
        },
        {
          "indexed": false,
          "internalType": "uint256",
          "name": "amount",
          "type": "uint256"
        }
      ],
      "name": "Withdrawn",
      "type": "event"
    },
    {
      "anonymous": false,
      "inputs": [
        {
          "indexed": false,
          "internalType": "string",
          "name": "description",
          "type": "string"
        }
      ],
      "name": "callBackFailed",
      "type": "event"
    },
    {
      "anonymous": false,
      "inputs": [
        {
          "indexed": false,
          "internalType": "bytes32",
          "name": "_queryId",
          "type": "bytes32"
        },
        {
          "indexed": false,
          "internalType": "uint8",
          "name": "result",
          "type": "uint8"
        }
      ],
      "name": "callBackPassed",
      "type": "event"
    },
    {
      "constant": true,
      "inputs": [],
      "name": "MAX_INT_FROM_BYTE",
      "outputs": [
        {
          "internalType": "uint256",
          "name": "",
          "type": "uint256"
        }
      ],
      "payable": false,
      "stateMutability": "view",
      "type": "function"
    },
    {
      "constant": true,
      "inputs": [],
      "name": "NUM_RANDOM_BYTES_REQUESTED",
      "outputs": [
        {
          "internalType": "uint256",
          "name": "",
          "type": "uint256"
        }
      ],
      "payable": false,
      "stateMutability": "view",
      "type": "function"
    },
    {
      "constant": true,
      "inputs": [],
      "name": "balance",
      "outputs": [
        {
          "internalType": "uint256",
          "name": "",
          "type": "uint256"
        }
      ],
      "payable": false,
      "stateMutability": "view",
      "type": "function"
    },
    {
      "constant": false,
      "inputs": [],
      "name": "close",
      "outputs": [],
      "payable": false,
      "stateMutability": "nonpayable",
      "type": "function"
    },
    {
      "constant": true,
      "inputs": [],
      "name": "owner",
      "outputs": [
        {
          "internalType": "address",
          "name": "",
          "type": "address"
        }
      ],
      "payable": false,
      "stateMutability": "view",
      "type": "function"
    },
    {
      "constant": true,
      "inputs": [
        {
          "internalType": "address",
          "name": "",
          "type": "address"
        }
      ],
      "name": "playInfo",
      "outputs": [
        {
          "internalType": "address payable",
          "name": "uAddress",
          "type": "address"
        },
        {
          "internalType": "uint256",
          "name": "uBalance",
          "type": "uint256"
        },
        {
          "internalType": "bool",
          "name": "inGame",
          "type": "bool"
        }
      ],
      "payable": false,
      "stateMutability": "view",
      "type": "function"
    },
    {
      "constant": true,
      "inputs": [
        {
          "internalType": "bytes32",
          "name": "",
          "type": "bytes32"
        }
      ],
      "name": "stateInfo",
      "outputs": [
        {
          "internalType": "address payable",
          "name": "player",
          "type": "address"
        },
        {
          "internalType": "uint256",
          "name": "value",
          "type": "uint256"
        },
        {
          "internalType": "uint256",
          "name": "result",
          "type": "uint256"
        },
        {
          "internalType": "bytes32",
          "name": "queryId",
          "type": "bytes32"
        }
      ],
      "payable": false,
      "stateMutability": "view",
      "type": "function"
    },
    {
      "constant": false,
      "inputs": [],
      "name": "addPlayerFunds",
      "outputs": [],
      "payable": true,
      "stateMutability": "payable",
      "type": "function"
    },
    {
      "constant": false,
      "inputs": [
        {
          "internalType": "uint256",
          "name": "value",
          "type": "uint256"
        }
      ],
      "name": "bet",
      "outputs": [],
      "payable": false,
      "stateMutability": "nonpayable",
      "type": "function"
    },
    {
      "constant": false,
      "inputs": [
        {
          "internalType": "address payable",
          "name": "player",
          "type": "address"
        },
        {
          "internalType": "uint256",
          "name": "value",
          "type": "uint256"
        }
      ],
      "name": "oracleRandom",
      "outputs": [],
      "payable": true,
      "stateMutability": "payable",
      "type": "function"
    },
    {
      "constant": false,
      "inputs": [
        {
          "internalType": "bytes32",
          "name": "_myid",
          "type": "bytes32"
        },
        {
          "internalType": "string",
          "name": "_result",
          "type": "string"
        }
      ],
      "name": "__callback",
      "outputs": [],
      "payable": false,
      "stateMutability": "nonpayable",
      "type": "function"
    },
    {
      "constant": false,
      "inputs": [
        {
          "internalType": "bytes32",
          "name": "_queryId",
          "type": "bytes32"
        },
        {
          "internalType": "string",
          "name": "_result",
          "type": "string"
        },
        {
          "internalType": "bytes",
          "name": "_proof",
          "type": "bytes"
        }
      ],
      "name": "__callback",
      "outputs": [],
      "payable": false,
      "stateMutability": "nonpayable",
      "type": "function"
    },
    {
      "constant": false,
      "inputs": [
        {
          "internalType": "uint8",
          "name": "result",
          "type": "uint8"
        },
        {
          "internalType": "bytes32",
          "name": "_queryId",
          "type": "bytes32"
        }
      ],
      "name": "processResult",
      "outputs": [],
      "payable": false,
      "stateMutability": "nonpayable",
      "type": "function"
    },
    {
      "constant": false,
      "inputs": [],
      "name": "reset",
      "outputs": [
        {
          "internalType": "bool",
          "name": "",
          "type": "bool"
        }
      ],
      "payable": false,
      "stateMutability": "nonpayable",
      "type": "function"
    },
    {
      "constant": true,
      "inputs": [],
      "name": "getBalance",
      "outputs": [
        {
          "internalType": "uint256",
          "name": "",
          "type": "uint256"
        }
      ],
      "payable": false,
      "stateMutability": "view",
      "type": "function"
    },
    {
      "constant": true,
      "inputs": [],
      "name": "getUserBalance",
      "outputs": [
        {
          "internalType": "uint256",
          "name": "",
          "type": "uint256"
        }
      ],
      "payable": false,
      "stateMutability": "view",
      "type": "function"
    },
    {
      "constant": false,
      "inputs": [],
      "name": "withdrawUserBalance",
      "outputs": [
        {
          "internalType": "uint256",
          "name": "",
          "type": "uint256"
        }
      ],
      "payable": false,
      "stateMutability": "nonpayable",
      "type": "function"
    },
    {
      "constant": false,
      "inputs": [],
      "name": "fund",
      "outputs": [],
      "payable": true,
      "stateMutability": "payable",
      "type": "function"
    },
    {
      "constant": false,
      "inputs": [],
      "name": "withdrawAll",
      "outputs": [
        {
          "internalType": "uint256",
          "name": "",
          "type": "uint256"
        }
      ],
      "payable": false,
      "stateMutability": "nonpayable",
      "type": "function"
    }
  ],
  "bytecode": "0x6080604052336000806101000a81548173ffffffffffffffffffffffffffffffffffffffff021916908373ffffffffffffffffffffffffffffffffffffffff16021790555062000059603060f81b6200005f60201b60201c565b62000a83565b600073ffffffffffffffffffffffffffffffffffffffff16600260009054906101000a900473ffffffffffffffffffffffffffffffffffffffff1673ffffffffffffffffffffffffffffffffffffffff161480620000ef57506000620000ed600260009054906101000a900473ffffffffffffffffffffffffffffffffffffffff16620003c560201b60201c565b145b156200010957620001076000620003d060201b60201c565b505b600260009054906101000a900473ffffffffffffffffffffffffffffffffffffffff1673ffffffffffffffffffffffffffffffffffffffff166338cc48316040518163ffffffff1660e01b8152600401602060405180830381600087803b1580156200017457600080fd5b505af115801562000189573d6000803e3d6000fd5b505050506040513d6020811015620001a057600080fd5b810190808051906020019092919050505073ffffffffffffffffffffffffffffffffffffffff16600160009054906101000a900473ffffffffffffffffffffffffffffffffffffffff1673ffffffffffffffffffffffffffffffffffffffff1614620002ef57600260009054906101000a900473ffffffffffffffffffffffffffffffffffffffff1673ffffffffffffffffffffffffffffffffffffffff166338cc48316040518163ffffffff1660e01b8152600401602060405180830381600087803b1580156200027157600080fd5b505af115801562000286573d6000803e3d6000fd5b505050506040513d60208110156200029d57600080fd5b8101908080519060200190929190505050600160006101000a81548173ffffffffffffffffffffffffffffffffffffffff021916908373ffffffffffffffffffffffffffffffffffffffff1602179055505b600160009054906101000a900473ffffffffffffffffffffffffffffffffffffffff1673ffffffffffffffffffffffffffffffffffffffff1663688dcfd7826040518263ffffffff1660e01b815260040180827effffffffffffffffffffffffffffffffffffffffffffffffffffffffffffff19167effffffffffffffffffffffffffffffffffffffffffffffffffffffffffffff19168152602001915050600060405180830381600087803b158015620003a957600080fd5b505af1158015620003be573d6000803e3d6000fd5b5050505050565b6000813b9050919050565b6000620003e2620003e960201b60201c565b9050919050565b60008062000411731d3b2638a7cc9f2cb3d298a3da7a90b67e5506ed620003c560201b60201c565b1115620004bd57731d3b2638a7cc9f2cb3d298a3da7a90b67e5506ed600260006101000a81548173ffffffffffffffffffffffffffffffffffffffff021916908373ffffffffffffffffffffffffffffffffffffffff160217905550620004b36040518060400160405280600b81526020017f6574685f6d61696e6e6574000000000000000000000000000000000000000000815250620009b860201b60201c565b60019050620009b5565b6000620004e473c03a2615d5efaf5f49f60b7bb6583eaec212fdf1620003c560201b60201c565b1115620005905773c03a2615d5efaf5f49f60b7bb6583eaec212fdf1600260006101000a81548173ffffffffffffffffffffffffffffffffffffffff021916908373ffffffffffffffffffffffffffffffffffffffff160217905550620005866040518060400160405280600c81526020017f6574685f726f707374656e330000000000000000000000000000000000000000815250620009b860201b60201c565b60019050620009b5565b6000620005b773b7a07bcf2ba2f2703b24c0691b5278999c59ac7e620003c560201b60201c565b1115620006635773b7a07bcf2ba2f2703b24c0691b5278999c59ac7e600260006101000a81548173ffffffffffffffffffffffffffffffffffffffff021916908373ffffffffffffffffffffffffffffffffffffffff160217905550620006596040518060400160405280600981526020017f6574685f6b6f76616e0000000000000000000000000000000000000000000000815250620009b860201b60201c565b60019050620009b5565b60006200068a73146500cfd35b22e4a392fe0adc06de1a1368ed48620003c560201b60201c565b1115620007365773146500cfd35b22e4a392fe0adc06de1a1368ed48600260006101000a81548173ffffffffffffffffffffffffffffffffffffffff021916908373ffffffffffffffffffffffffffffffffffffffff1602179055506200072c6040518060400160405280600b81526020017f6574685f72696e6b656279000000000000000000000000000000000000000000815250620009b860201b60201c565b60019050620009b5565b60006200075d73a2998efd205fb9d4b4963afb70778d6354ad3a41620003c560201b60201c565b1115620008095773a2998efd205fb9d4b4963afb70778d6354ad3a41600260006101000a81548173ffffffffffffffffffffffffffffffffffffffff021916908373ffffffffffffffffffffffffffffffffffffffff160217905550620007ff6040518060400160405280600a81526020017f6574685f676f65726c6900000000000000000000000000000000000000000000815250620009b860201b60201c565b60019050620009b5565b600062000830736f485c8bf6fc43ea212e93bbf8ce046c7f1cb475620003c560201b60201c565b11156200089657736f485c8bf6fc43ea212e93bbf8ce046c7f1cb475600260006101000a81548173ffffffffffffffffffffffffffffffffffffffff021916908373ffffffffffffffffffffffffffffffffffffffff16021790555060019050620009b5565b6000620008bd7320e12a1f859b3feae5fb2a0a32c18f5a65555bbf620003c560201b60201c565b111562000923577320e12a1f859b3feae5fb2a0a32c18f5a65555bbf600260006101000a81548173ffffffffffffffffffffffffffffffffffffffff021916908373ffffffffffffffffffffffffffffffffffffffff16021790555060019050620009b5565b60006200094a7351efaf4c8b3c9afbd5ab9f4bbc82784ab6ef8faa620003c560201b60201c565b1115620009b0577351efaf4c8b3c9afbd5ab9f4bbc82784ab6ef8faa600260006101000a81548173ffffffffffffffffffffffffffffffffffffffff021916908373ffffffffffffffffffffffffffffffffffffffff16021790555060019050620009b5565b600090505b90565b8060039080519060200190620009d0929190620009d4565b5050565b828054600181600116156101000203166002900490600052602060002090601f016020900481019282601f1062000a1757805160ff191683800117855562000a48565b8280016001018555821562000a48579182015b8281111562000a4757825182559160200191906001019062000a2a565b5b50905062000a57919062000a5b565b5090565b62000a8091905b8082111562000a7c57600081600090555060010162000a62565b5090565b90565b6154f88062000a936000396000f3fe6080604052600436106101145760003560e01c806389257b36116100a0578063bad983af11610064578063bad983af146105d3578063c368880a146105fe578063c44753e61461068e578063d826f88f146106b9578063e605d8d2146106e857610114565b806389257b36146104d45780638da5cb5b1461051c578063b60d428814610573578063b69ef8a81461057d578063b7013dc1146105a857610114565b806343d726d6116100e757806343d726d6146103aa5780635f0ae997146103c15780637365870b146104645780638492b7061461049f578063853828b6146104a957610114565b806312065fe01461011957806327dc297e1461014457806338bbfa50146102165780634291b67b1461037f575b600080fd5b34801561012557600080fd5b5061012e610736565b6040518082815260200191505060405180910390f35b34801561015057600080fd5b506102146004803603604081101561016757600080fd5b81019080803590602001909291908035906020019064010000000081111561018e57600080fd5b8201836020820111156101a057600080fd5b803590602001918460018302840111640100000000831117156101c257600080fd5b91908080601f016020809104026020016040519081016040528093929190818152602001838380828437600081840152601f19601f820116905080830192505050505050509192919290505050610755565b005b34801561022257600080fd5b5061037d6004803603606081101561023957600080fd5b81019080803590602001909291908035906020019064010000000081111561026057600080fd5b82018360208201111561027257600080fd5b8035906020019184600183028401116401000000008311171561029457600080fd5b91908080601f016020809104026020016040519081016040528093929190818152602001838380828437600081840152601f19601f820116905080830192505050505050509192919290803590602001906401000000008111156102f757600080fd5b82018360208201111561030957600080fd5b8035906020019184600183028401116401000000008311171561032b57600080fd5b91908080601f016020809104026020016040519081016040528093929190818152602001838380828437600081840152601f19601f820116905080830192505050505050509192919290505050610798565b005b34801561038b57600080fd5b506103946109b4565b6040518082815260200191505060405180910390f35b3480156103b657600080fd5b506103bf6109ba565b005b3480156103cd57600080fd5b50610410600480360360208110156103e457600080fd5b81019080803573ffffffffffffffffffffffffffffffffffffffff169060200190929190505050610a9a565b604051808473ffffffffffffffffffffffffffffffffffffffff1673ffffffffffffffffffffffffffffffffffffffff16815260200183815260200182151515158152602001935050505060405180910390f35b34801561047057600080fd5b5061049d6004803603602081101561048757600080fd5b8101908080359060200190929190505050610af1565b005b6104a7610e5b565b005b3480156104b557600080fd5b506104be611254565b6040518082815260200191505060405180910390f35b3480156104e057600080fd5b5061051a600480360360408110156104f757600080fd5b81019080803560ff16906020019092919080359060200190929190505050611372565b005b34801561052857600080fd5b506105316115f4565b604051808273ffffffffffffffffffffffffffffffffffffffff1673ffffffffffffffffffffffffffffffffffffffff16815260200191505060405180910390f35b61057b611619565b005b34801561058957600080fd5b506105926117f9565b6040518082815260200191505060405180910390f35b3480156105b457600080fd5b506105bd6117ff565b6040518082815260200191505060405180910390f35b3480156105df57600080fd5b506105e8611849565b6040518082815260200191505060405180910390f35b34801561060a57600080fd5b506106376004803603602081101561062157600080fd5b8101908080359060200190929190505050611af5565b604051808573ffffffffffffffffffffffffffffffffffffffff1673ffffffffffffffffffffffffffffffffffffffff16815260200184815260200183815260200182815260200194505050505060405180910390f35b34801561069a57600080fd5b506106a3611b45565b6040518082815260200191505060405180910390f35b3480156106c557600080fd5b506106ce611b4a565b604051808215151515815260200191505060405180910390f35b610734600480360360408110156106fe57600080fd5b81019080803573ffffffffffffffffffffffffffffffffffffffff16906020019092919080359060200190929190505050611c6c565b005b60003073ffffffffffffffffffffffffffffffffffffffff1631905090565b610794828260006040519080825280601f01601f19166020018201604052801561078e5781602001600182028038833980820191505090505b50610798565b5050565b6107a0611e0d565b73ffffffffffffffffffffffffffffffffffffffff163373ffffffffffffffffffffffffffffffffffffffff16146107d757600080fd5b60006107e484848461212d565b60ff1614610859577f1e4bf9681a4be7863fccfada435beaad7898596ff4fb67cb4b05f3a6949da53360405180806020018281038252600f8152602001807f43616c6c6261636b206661696c6564000000000000000000000000000000000081525060200191505060405180910390a16109af565b6000826040516020018082805190602001908083835b60208310610892578051825260208201915060208101905060208303925061086f565b6001836020036101000a0380198251168184511680821785525050505050509050019150506040516020818303038152906040528051906020012060001c905060006108e860028361225d90919063ffffffff16565b90508060ff1660076000878152602001908152602001600020600201819055506109128186611372565b7f4e86f5fbc6e90c5e74892ea6f0888079f5f99122825931c8dd156d43c86daaba8582604051808381526020018260ff1660ff1681526020019250505060405180910390a160076000868152602001908152602001600020600080820160006101000a81549073ffffffffffffffffffffffffffffffffffffffff0219169055600182016000905560028201600090556003820160009055505050505b505050565b61010081565b6000809054906101000a900473ffffffffffffffffffffffffffffffffffffffff1673ffffffffffffffffffffffffffffffffffffffff163373ffffffffffffffffffffffffffffffffffffffff1614610a7c576040517f08c379a00000000000000000000000000000000000000000000000000000000081526004018080602001828103825260198152602001807f6f6e6c792061636365737320666f7220746865206f776e65720000000000000081525060200191505060405180910390fd5b60003390508073ffffffffffffffffffffffffffffffffffffffff16ff5b60086020528060005260406000206000915090508060000160009054906101000a900473ffffffffffffffffffffffffffffffffffffffff16908060010154908060020160009054906101000a900460ff16905083565b6000610b316040518060400160405280600681526020017f52616e646f6d00000000000000000000000000000000000000000000000000008152506122a7565b9050808201600860003373ffffffffffffffffffffffffffffffffffffffff1673ffffffffffffffffffffffffffffffffffffffff1681526020019081526020016000206001015411610bec576040517f08c379a00000000000000000000000000000000000000000000000000000000081526004018080602001828103825260158152602001807f496e63726561736520757365722062616c616e6365000000000000000000000081525060200191505060405180910390fd5b60001515600860003373ffffffffffffffffffffffffffffffffffffffff1673ffffffffffffffffffffffffffffffffffffffff16815260200190815260200160002060020160009054906101000a900460ff16151514610cb5576040517f08c379a000000000000000000000000000000000000000000000000000000000815260040180806020018281038252601c8152602001807f5761697420666f722066756e6374696f6e20746f2070726f636573730000000081525060200191505060405180910390fd5b6001600860003373ffffffffffffffffffffffffffffffffffffffff1673ffffffffffffffffffffffffffffffffffffffff16815260200190815260200160002060020160006101000a81548160ff0219169083151502179055506000600860003373ffffffffffffffffffffffffffffffffffffffff1673ffffffffffffffffffffffffffffffffffffffff1681526020019081526020016000206001015490507f0a590c12dea7c3a50037a1d1a3d9ff9ba74fe130f3428319478b31ef6199e228816040518082815260200191505060405180910390a160008284019050610dea81600860003373ffffffffffffffffffffffffffffffffffffffff1673ffffffffffffffffffffffffffffffffffffffff1681526020019081526020016000206001015461263b90919063ffffffff16565b600860003373ffffffffffffffffffffffffffffffffffffffff1673ffffffffffffffffffffffffffffffffffffffff16815260200190815260200160002060010181905550610e458160065461268590919063ffffffff16565b600681905550610e553385611c6c565b50505050565b67016345785d8a000080341015610eda576040517f08c379a00000000000000000000000000000000000000000000000000000000081526004018080602001828103825260148152602001807f4e6f7420656e6f756768204554482073656e742100000000000000000000000081525060200191505060405180910390fd5b600654341115610f52576040517f08c379a00000000000000000000000000000000000000000000000000000000081526004018080602001828103825260198152602001807f5761697420666f7220636f6e74726163742066756e64696e670000000000000081525060200191505060405180910390fd5b610f5a6152cc565b33816000019073ffffffffffffffffffffffffffffffffffffffff16908173ffffffffffffffffffffffffffffffffffffffff1681525050600860003373ffffffffffffffffffffffffffffffffffffffff1673ffffffffffffffffffffffffffffffffffffffff16815260200190815260200160002060010154816020018181525050600860003373ffffffffffffffffffffffffffffffffffffffff1673ffffffffffffffffffffffffffffffffffffffff16815260200190815260200160002060020160009054906101000a900460ff1681604001901515908115158152505080600860003373ffffffffffffffffffffffffffffffffffffffff1673ffffffffffffffffffffffffffffffffffffffff16815260200190815260200160002060008201518160000160006101000a81548173ffffffffffffffffffffffffffffffffffffffff021916908373ffffffffffffffffffffffffffffffffffffffff1602179055506020820151816001015560408201518160020160006101000a81548160ff02191690831515021790555090505034600860003373ffffffffffffffffffffffffffffffffffffffff1673ffffffffffffffffffffffffffffffffffffffff168152602001908152602001600020600101600082825401925050819055507f02a3340732c2a9d6e01ca6a8a88b55044de0108a1e9155f12482b10a3cb63fec600860003373ffffffffffffffffffffffffffffffffffffffff1673ffffffffffffffffffffffffffffffffffffffff16815260200190815260200160002060000160009054906101000a900473ffffffffffffffffffffffffffffffffffffffff16600860003373ffffffffffffffffffffffffffffffffffffffff1673ffffffffffffffffffffffffffffffffffffffff16815260200190815260200160002060010154604051808373ffffffffffffffffffffffffffffffffffffffff1673ffffffffffffffffffffffffffffffffffffffff1681526020018281526020019250505060405180910390a15050565b60008060009054906101000a900473ffffffffffffffffffffffffffffffffffffffff1673ffffffffffffffffffffffffffffffffffffffff163373ffffffffffffffffffffffffffffffffffffffff1614611318576040517f08c379a00000000000000000000000000000000000000000000000000000000081526004018080602001828103825260198152602001807f6f6e6c792061636365737320666f7220746865206f776e65720000000000000081525060200191505060405180910390fd5b6000600654905060006006819055503373ffffffffffffffffffffffffffffffffffffffff166108fc829081150290604051600060405180830381858888f1935050505015801561136d573d6000803e3d6000fd5b505090565b60006007600083815260200190815260200160002060000160009054906101000a900473ffffffffffffffffffffffffffffffffffffffff1690506000600860008373ffffffffffffffffffffffffffffffffffffffff1673ffffffffffffffffffffffffffffffffffffffff16815260200190815260200160002060020160006101000a81548160ff021916908315150217905550600060076000848152602001908152602001600020600101549050600061143960028361270d90919063ffffffff16565b905060018560ff1614156115185761149c81600860008673ffffffffffffffffffffffffffffffffffffffff1673ffffffffffffffffffffffffffffffffffffffff1681526020019081526020016000206001015461268590919063ffffffff16565b600860008573ffffffffffffffffffffffffffffffffffffffff1673ffffffffffffffffffffffffffffffffffffffff168152602001908152602001600020600101819055506114f78160065461263b90919063ffffffff16565b5060008560ff16148061150d575060018560ff16145b61151357fe5b611534565b60008560ff16148061152d575060018560ff16145b61153357fe5b5b6000600860008573ffffffffffffffffffffffffffffffffffffffff1673ffffffffffffffffffffffffffffffffffffffff1681526020019081526020016000206001015490507faf6141eb3373fd564c07296ba42ddb014d5d40fb23770fd5dfd4956e9023db0e816040518082815260200191505060405180910390a17f10c1de1966c08b5560bca13edbe0d305e0456e19ee6cdf80c318dfe8ed4cce4986604051808260ff16815260200191505060405180910390a1505050505050565b6000809054906101000a900473ffffffffffffffffffffffffffffffffffffffff1681565b6000809054906101000a900473ffffffffffffffffffffffffffffffffffffffff1673ffffffffffffffffffffffffffffffffffffffff163373ffffffffffffffffffffffffffffffffffffffff16146116db576040517f08c379a00000000000000000000000000000000000000000000000000000000081526004018080602001828103825260198152602001807f6f6e6c792061636365737320666f7220746865206f776e65720000000000000081525060200191505060405180910390fd5b6706f05b59d3b200008034101561175a576040517f08c379a00000000000000000000000000000000000000000000000000000000081526004018080602001828103825260148152602001807f4e6f7420656e6f756768204554482073656e742100000000000000000000000081525060200191505060405180910390fd5b346006600082825401925050819055507f5c5c52faf0379d6438710fab5583f7bf4001bbc1c48b855499e7f9a7183e0fec6000809054906101000a900473ffffffffffffffffffffffffffffffffffffffff1634604051808373ffffffffffffffffffffffffffffffffffffffff1673ffffffffffffffffffffffffffffffffffffffff1681526020018281526020019250505060405180910390a150565b60065481565b6000600860003373ffffffffffffffffffffffffffffffffffffffff1673ffffffffffffffffffffffffffffffffffffffff16815260200190815260200160002060010154905090565b6000801515600860003373ffffffffffffffffffffffffffffffffffffffff1673ffffffffffffffffffffffffffffffffffffffff16815260200190815260200160002060020160009054906101000a900460ff161515146118aa57600080fd5b6000600860003373ffffffffffffffffffffffffffffffffffffffff1673ffffffffffffffffffffffffffffffffffffffff1681526020019081526020016000206001015411611962576040517f08c379a00000000000000000000000000000000000000000000000000000000081526004018080602001828103825260148152602001807f4e6f7468696e6720746f2077697468647261772e00000000000000000000000081525060200191505060405180910390fd5b6000600860003373ffffffffffffffffffffffffffffffffffffffff1673ffffffffffffffffffffffffffffffffffffffff1681526020019081526020016000206001015490506000600860003373ffffffffffffffffffffffffffffffffffffffff1673ffffffffffffffffffffffffffffffffffffffff168152602001908152602001600020600101819055503373ffffffffffffffffffffffffffffffffffffffff166108fc829081150290604051600060405180830381858888f19350505050158015611a37573d6000803e3d6000fd5b50600860003373ffffffffffffffffffffffffffffffffffffffff1673ffffffffffffffffffffffffffffffffffffffff168152602001908152602001600020600101546006541015611a8657fe5b7f7084f5476618d8e60b11ef0d7d3f06914655adb8793e28ff7f018d4c76d505d53382604051808373ffffffffffffffffffffffffffffffffffffffff1673ffffffffffffffffffffffffffffffffffffffff1681526020018281526020019250505060405180910390a15090565b60076020528060005260406000206000915090508060000160009054906101000a900473ffffffffffffffffffffffffffffffffffffffff16908060010154908060020154908060030154905084565b600181565b60008060009054906101000a900473ffffffffffffffffffffffffffffffffffffffff1673ffffffffffffffffffffffffffffffffffffffff163373ffffffffffffffffffffffffffffffffffffffff1614611c0e576040517f08c379a00000000000000000000000000000000000000000000000000000000081526004018080602001828103825260198152602001807f6f6e6c792061636365737320666f7220746865206f776e65720000000000000081525060200191505060405180910390fd5b6000600860003373ffffffffffffffffffffffffffffffffffffffff1673ffffffffffffffffffffffffffffffffffffffff16815260200190815260200160002060020160006101000a81548160ff02191690831515021790555090565b6000809050600062030d4090506000611c8783600184612793565b9050611c91615305565b33816000019073ffffffffffffffffffffffffffffffffffffffff16908173ffffffffffffffffffffffffffffffffffffffff16815250508481602001818152505080604001515081816060018181525050806007600084815260200190815260200160002060008201518160000160006101000a81548173ffffffffffffffffffffffffffffffffffffffff021916908373ffffffffffffffffffffffffffffffffffffffff160217905550602082015181600101556040820151816002015560608201518160030155905050818673ffffffffffffffffffffffffffffffffffffffff167f90a83f45677b8c0e2bba0e0c86ae47dd911a5d54780433f3efea704f8b9b45b983602001516040518082815260200191505060405180910390a37f03f87726502eec329641d0b704cac4f62e20440c8e341563a08a35b50dc0c20f8260405180806020018381526020018281038252603681526020018061548e603691396040019250505060405180910390a1505050505050565b60008073ffffffffffffffffffffffffffffffffffffffff16600260009054906101000a900473ffffffffffffffffffffffffffffffffffffffff1673ffffffffffffffffffffffffffffffffffffffff161480611e9557506000611e93600260009054906101000a900473ffffffffffffffffffffffffffffffffffffffff16612d2e565b145b15611ea657611ea46000612d39565b505b600260009054906101000a900473ffffffffffffffffffffffffffffffffffffffff1673ffffffffffffffffffffffffffffffffffffffff166338cc48316040518163ffffffff1660e01b8152600401602060405180830381600087803b158015611f1057600080fd5b505af1158015611f24573d6000803e3d6000fd5b505050506040513d6020811015611f3a57600080fd5b810190808051906020019092919050505073ffffffffffffffffffffffffffffffffffffffff16600160009054906101000a900473ffffffffffffffffffffffffffffffffffffffff1673ffffffffffffffffffffffffffffffffffffffff161461208557600260009054906101000a900473ffffffffffffffffffffffffffffffffffffffff1673ffffffffffffffffffffffffffffffffffffffff166338cc48316040518163ffffffff1660e01b8152600401602060405180830381600087803b15801561200957600080fd5b505af115801561201d573d6000803e3d6000fd5b505050506040513d602081101561203357600080fd5b8101908080519060200190929190505050600160006101000a81548173ffffffffffffffffffffffffffffffffffffffff021916908373ffffffffffffffffffffffffffffffffffffffff1602179055505b600160009054906101000a900473ffffffffffffffffffffffffffffffffffffffff1673ffffffffffffffffffffffffffffffffffffffff1663c281d19e6040518163ffffffff1660e01b815260040160206040518083038186803b1580156120ed57600080fd5b505afa158015612101573d6000803e3d6000fd5b505050506040513d602081101561211757600080fd5b8101908080519060200190929190505050905090565b60007f4c000000000000000000000000000000000000000000000000000000000000008260008151811061215d57fe5b602001015160f81c60f81b7effffffffffffffffffffffffffffffffffffffffffffffffffffffffffffff19161415806121f057507f5000000000000000000000000000000000000000000000000000000000000000826001815181106121c057fe5b602001015160f81c60f81b7effffffffffffffffffffffffffffffffffffffffffffffffffffffffffffff191614155b8061221c5750600160ff168260028151811061220857fe5b602001015160f81c60f81b60f81c60ff1614155b1561222a5760019050612256565b600061223f83868661223a612d4a565b612dec565b905080612250576002915050612256565b60009150505b9392505050565b600061229f83836040518060400160405280601881526020017f536166654d6174683a206d6f64756c6f206279207a65726f0000000000000000815250613497565b905092915050565b60008073ffffffffffffffffffffffffffffffffffffffff16600260009054906101000a900473ffffffffffffffffffffffffffffffffffffffff1673ffffffffffffffffffffffffffffffffffffffff16148061232f5750600061232d600260009054906101000a900473ffffffffffffffffffffffffffffffffffffffff16612d2e565b145b156123405761233e6000612d39565b505b600260009054906101000a900473ffffffffffffffffffffffffffffffffffffffff1673ffffffffffffffffffffffffffffffffffffffff166338cc48316040518163ffffffff1660e01b8152600401602060405180830381600087803b1580156123aa57600080fd5b505af11580156123be573d6000803e3d6000fd5b505050506040513d60208110156123d457600080fd5b810190808051906020019092919050505073ffffffffffffffffffffffffffffffffffffffff16600160009054906101000a900473ffffffffffffffffffffffffffffffffffffffff1673ffffffffffffffffffffffffffffffffffffffff161461251f57600260009054906101000a900473ffffffffffffffffffffffffffffffffffffffff1673ffffffffffffffffffffffffffffffffffffffff166338cc48316040518163ffffffff1660e01b8152600401602060405180830381600087803b1580156124a357600080fd5b505af11580156124b7573d6000803e3d6000fd5b505050506040513d60208110156124cd57600080fd5b8101908080519060200190929190505050600160006101000a81548173ffffffffffffffffffffffffffffffffffffffff021916908373ffffffffffffffffffffffffffffffffffffffff1602179055505b600160009054906101000a900473ffffffffffffffffffffffffffffffffffffffff1673ffffffffffffffffffffffffffffffffffffffff1663524f3889836040518263ffffffff1660e01b81526004018080602001828103825283818151815260200191508051906020019080838360005b838110156125ad578082015181840152602081019050612592565b50505050905090810190601f1680156125da5780820380516001836020036101000a031916815260200191505b5092505050602060405180830381600087803b1580156125f957600080fd5b505af115801561260d573d6000803e3d6000fd5b505050506040513d602081101561262357600080fd5b81019080805190602001909291905050509050919050565b600061267d83836040518060400160405280601e81526020017f536166654d6174683a207375627472616374696f6e206f766572666c6f770000815250613558565b905092915050565b600080828401905083811015612703576040517f08c379a000000000000000000000000000000000000000000000000000000000815260040180806020018281038252601b8152602001807f536166654d6174683a206164646974696f6e206f766572666c6f77000000000081525060200191505060405180910390fd5b8091505092915050565b600080831415612720576000905061278d565b600082840290508284828161273157fe5b0414612788576040517f08c379a000000000000000000000000000000000000000000000000000000000815260040180806020018281038252602181526020018061542d6021913960400191505060405180910390fd5b809150505b92915050565b600080831180156127a5575060208311155b6127ae57600080fd5b600a84029350606060016040519080825280601f01601f1916602001820160405280156127ea5781602001600182028038833980820191505090505b5090508360f81b816000815181106127fe57fe5b60200101907effffffffffffffffffffffffffffffffffffffffffffffffffffffffffffff1916908160001a905350606060206040519080825280601f01601f1916602001820160405280156128635781602001600182028038833980820191505090505b509050606060206040519080825280601f01601f19166020018201604052801561289c5781602001600182028038833980820191505090505b50905060006128a9613618565b905060208352424118600143034018602084015260208252806020830152606060206040519080825280601f01601f1916602001820160405280156128fd5781602001600182028038833980820191505090505b509050886020820152606060086040519080825280601f01601f19166020018201604052801561293c5781602001600182028038833980820191505090505b50905061294f8260186008846000613938565b50612958615346565b604051806080016040528087815260200188815260200186815260200184815250905060006129bd6040518060400160405280600681526020017f72616e646f6d0000000000000000000000000000000000000000000000000000815250838c613997565b9050606060086040519080825280601f01601f1916602001820160405280156129f55781602001600182028038833980820191505090505b50905060208401517f0100000000000000000000000000000000000000000000000000000000000000810460278301537e01000000000000000000000000000000000000000000000000000000000000810460268301537d010000000000000000000000000000000000000000000000000000000000810460258301537c0100000000000000000000000000000000000000000000000000000000810460248301537b01000000000000000000000000000000000000000000000000000000810460238301537a010000000000000000000000000000000000000000000000000000810460228301537901000000000000000000000000000000000000000000000000008104602183015378010000000000000000000000000000000000000000000000008104602083015350612d1b828285600160048110612b3457fe5b6020020151600287600060048110612b4857fe5b60200201516040518082805190602001908083835b60208310612b805780518252602082019150602081019050602083039250612b5d565b6001836020036101000a038019825116818451168082178552505050505050905001915050602060405180830381855afa158015612bc2573d6000803e3d6000fd5b5050506040513d6020811015612bd757600080fd5b810190808051906020019092919050505087600260048110612bf557fe5b60200201516040516020018085805190602001908083835b60208310612c305780518252602082019150602081019050602083039250612c0d565b6001836020036101000a03801982511681845116808217855250505050505090500184805190602001908083835b60208310612c815780518252602082019150602081019050602083039250612c5e565b6001836020036101000a03801982511681845116808217855250505050505090500183815260200182805190602001908083835b60208310612cd85780518252602082019150602081019050602083039250612cb5565b6001836020036101000a03801982511681845116808217855250505050505090500194505050505060405160208183030381529060405280519060200120613d06565b8199505050505050505050509392505050565b6000813b9050919050565b6000612d43613d22565b9050919050565b606060038054600181600116156101000203166002900480601f016020809104026020016040519081016040528092919081815260200182805460018160011615610100020316600290048015612de25780601f10612db757610100808354040283529160200191612de2565b820191906000526020600020905b815481529060010190602001808311612dc557829003601f168201915b5050505050905090565b6000806020600287604581518110612e0057fe5b602001015160f81c60f81b60f81c60ff1601604401019050606060206040519080825280601f01601f191660200182016040528015612e4e5781602001600182028038833980820191505090505b509050612e6087836020846000613938565b50600284876040516020018083805190602001908083835b60208310612e9b5780518252602082019150602081019050602083039250612e78565b6001836020036101000a038019825116818451168082178552505050505050905001828152602001925050506040516020818303038152906040526040518082805190602001908083835b60208310612f095780518252602082019150602081019050602083039250612ee6565b6001836020036101000a038019825116818451168082178552505050505050905001915050602060405180830381855afa158015612f4b573d6000803e3d6000fd5b5050506040513d6020811015612f6057600080fd5b81019080805190602001909291905050506040516020018082815260200191505060405160208183030381529060405280519060200120818051906020012014612faf5760009250505061348f565b60606002886001604986010181518110612fc557fe5b602001015160f81c60f81b60f81c60ff16016040519080825280601f01601f1916602001820160405280156130095781602001600182028038833980820191505090505b50905061301e88604985018351846000613938565b506130e96002826040518082805190602001908083835b602083106130585780518252602082019150602081019050602083039250613035565b6001836020036101000a038019825116818451168082178552505050505050905001915050602060405180830381855afa15801561309a573d6000803e3d6000fd5b5050506040513d60208110156130af57600080fd5b8101908080519060200190929190505050878a60086020880101815181106130d357fe5b602001015160f81c60f81b60f81c60ff16614279565b6130f9576000935050505061348f565b606060296040519080825280601f01601f19166020018201604052801561312f5781602001600182028038833980820191505090505b50905061314489602086016029846000613938565b506060604080519080825280601f01601f19166020018201604052801561317a5781602001600182028038833980820191505090505b50905060006041845160296020890101010190506131a08b604083036040856000613938565b5060006002836040518082805190602001908083835b602083106131d957805182526020820191506020810190506020830392506131b6565b6001836020036101000a038019825116818451168082178552505050505050905001915050602060405180830381855afa15801561321b573d6000803e3d6000fd5b5050506040513d602081101561323057600080fd5b8101908080519060200190929190505050905083816040516020018083805190602001908083835b6020831061327b5780518252602082019150602081019050602083039250613258565b6001836020036101000a0380198251168184511680821785525050505050509050018281526020019250505060405160208183030381529060405280519060200120600460008d81526020019081526020016000205414156132f357600460008c815260200190815260200160002060009055613303565b600097505050505050505061348f565b606060496040519080825280601f01601f1916602001820160405280156133395781602001600182028038833980820191505090505b50905061334b8d896049846000613938565b506133f46002826040518082805190602001908083835b602083106133855780518252602082019150602081019050602083039250613362565b6001836020036101000a038019825116818451168082178552505050505050905001915050602060405180830381855afa1580156133c7573d6000803e3d6000fd5b5050506040513d60208110156133dc57600080fd5b81019080805190602001909291905050508786614329565b6134095760009850505050505050505061348f565b6005600083815260200190815260200160002060009054906101000a900460ff16613463576134388d846144e7565b6005600084815260200190815260200160002060006101000a81548160ff0219169083151502179055505b6005600083815260200190815260200160002060009054906101000a900460ff16985050505050505050505b949350505050565b6000808314158290613544576040517f08c379a00000000000000000000000000000000000000000000000000000000081526004018080602001828103825283818151815260200191508051906020019080838360005b838110156135095780820151818401526020810190506134ee565b50505050905090810190601f1680156135365780820380516001836020036101000a031916815260200191505b509250505060405180910390fd5b5082848161354e57fe5b0690509392505050565b6000838311158290613605576040517f08c379a00000000000000000000000000000000000000000000000000000000081526004018080602001828103825283818151815260200191508051906020019080838360005b838110156135ca5780820151818401526020810190506135af565b50505050905090810190601f1680156135f75780820380516001836020036101000a031916815260200191505b509250505060405180910390fd5b5060008385039050809150509392505050565b60008073ffffffffffffffffffffffffffffffffffffffff16600260009054906101000a900473ffffffffffffffffffffffffffffffffffffffff1673ffffffffffffffffffffffffffffffffffffffff1614806136a05750600061369e600260009054906101000a900473ffffffffffffffffffffffffffffffffffffffff16612d2e565b145b156136b1576136af6000612d39565b505b600260009054906101000a900473ffffffffffffffffffffffffffffffffffffffff1673ffffffffffffffffffffffffffffffffffffffff166338cc48316040518163ffffffff1660e01b8152600401602060405180830381600087803b15801561371b57600080fd5b505af115801561372f573d6000803e3d6000fd5b505050506040513d602081101561374557600080fd5b810190808051906020019092919050505073ffffffffffffffffffffffffffffffffffffffff16600160009054906101000a900473ffffffffffffffffffffffffffffffffffffffff1673ffffffffffffffffffffffffffffffffffffffff161461389057600260009054906101000a900473ffffffffffffffffffffffffffffffffffffffff1673ffffffffffffffffffffffffffffffffffffffff166338cc48316040518163ffffffff1660e01b8152600401602060405180830381600087803b15801561381457600080fd5b505af1158015613828573d6000803e3d6000fd5b505050506040513d602081101561383e57600080fd5b8101908080519060200190929190505050600160006101000a81548173ffffffffffffffffffffffffffffffffffffffff021916908373ffffffffffffffffffffffffffffffffffffffff1602179055505b600160009054906101000a900473ffffffffffffffffffffffffffffffffffffffff1673ffffffffffffffffffffffffffffffffffffffff1663abaa5f3e6040518163ffffffff1660e01b815260040160206040518083038186803b1580156138f857600080fd5b505afa15801561390c573d6000803e3d6000fd5b505050506040513d602081101561392257600080fd5b8101908080519060200190929190505050905090565b606060008285019050808451101561394f57600080fd5b600086602001905060008460200190505b8688602001018210156139885781890151808288015250602082019150602081019050613960565b85935050505095945050505050565b60008073ffffffffffffffffffffffffffffffffffffffff16600260009054906101000a900473ffffffffffffffffffffffffffffffffffffffff1673ffffffffffffffffffffffffffffffffffffffff161480613a1f57506000613a1d600260009054906101000a900473ffffffffffffffffffffffffffffffffffffffff16612d2e565b145b15613a3057613a2e6000612d39565b505b600260009054906101000a900473ffffffffffffffffffffffffffffffffffffffff1673ffffffffffffffffffffffffffffffffffffffff166338cc48316040518163ffffffff1660e01b8152600401602060405180830381600087803b158015613a9a57600080fd5b505af1158015613aae573d6000803e3d6000fd5b505050506040513d6020811015613ac457600080fd5b810190808051906020019092919050505073ffffffffffffffffffffffffffffffffffffffff16600160009054906101000a900473ffffffffffffffffffffffffffffffffffffffff1673ffffffffffffffffffffffffffffffffffffffff1614613c0f57600260009054906101000a900473ffffffffffffffffffffffffffffffffffffffff1673ffffffffffffffffffffffffffffffffffffffff166338cc48316040518163ffffffff1660e01b8152600401602060405180830381600087803b158015613b9357600080fd5b505af1158015613ba7573d6000803e3d6000fd5b505050506040513d6020811015613bbd57600080fd5b8101908080519060200190929190505050600160006101000a81548173ffffffffffffffffffffffffffffffffffffffff021916908373ffffffffffffffffffffffffffffffffffffffff1602179055505b60606004604051908082528060200260200182016040528015613c4657816020015b6060815260200190600190039081613c315790505b50905083600060048110613c5657fe5b602002015181600081518110613c6857fe5b602002602001018190525083600160048110613c8057fe5b602002015181600181518110613c9257fe5b602002602001018190525083600260048110613caa57fe5b602002015181600281518110613cbc57fe5b602002602001018190525083600360048110613cd457fe5b602002015181600381518110613ce657fe5b6020026020010181905250613cfc8582856148ff565b9150509392505050565b8060046000848152602001908152602001600020819055505050565b600080613d42731d3b2638a7cc9f2cb3d298a3da7a90b67e5506ed612d2e565b1115613de457731d3b2638a7cc9f2cb3d298a3da7a90b67e5506ed600260006101000a81548173ffffffffffffffffffffffffffffffffffffffff021916908373ffffffffffffffffffffffffffffffffffffffff160217905550613ddb6040518060400160405280600b81526020017f6574685f6d61696e6e6574000000000000000000000000000000000000000000815250614e65565b60019050614276565b6000613e0373c03a2615d5efaf5f49f60b7bb6583eaec212fdf1612d2e565b1115613ea55773c03a2615d5efaf5f49f60b7bb6583eaec212fdf1600260006101000a81548173ffffffffffffffffffffffffffffffffffffffff021916908373ffffffffffffffffffffffffffffffffffffffff160217905550613e9c6040518060400160405280600c81526020017f6574685f726f707374656e330000000000000000000000000000000000000000815250614e65565b60019050614276565b6000613ec473b7a07bcf2ba2f2703b24c0691b5278999c59ac7e612d2e565b1115613f665773b7a07bcf2ba2f2703b24c0691b5278999c59ac7e600260006101000a81548173ffffffffffffffffffffffffffffffffffffffff021916908373ffffffffffffffffffffffffffffffffffffffff160217905550613f5d6040518060400160405280600981526020017f6574685f6b6f76616e0000000000000000000000000000000000000000000000815250614e65565b60019050614276565b6000613f8573146500cfd35b22e4a392fe0adc06de1a1368ed48612d2e565b11156140275773146500cfd35b22e4a392fe0adc06de1a1368ed48600260006101000a81548173ffffffffffffffffffffffffffffffffffffffff021916908373ffffffffffffffffffffffffffffffffffffffff16021790555061401e6040518060400160405280600b81526020017f6574685f72696e6b656279000000000000000000000000000000000000000000815250614e65565b60019050614276565b600061404673a2998efd205fb9d4b4963afb70778d6354ad3a41612d2e565b11156140e85773a2998efd205fb9d4b4963afb70778d6354ad3a41600260006101000a81548173ffffffffffffffffffffffffffffffffffffffff021916908373ffffffffffffffffffffffffffffffffffffffff1602179055506140df6040518060400160405280600a81526020017f6574685f676f65726c6900000000000000000000000000000000000000000000815250614e65565b60019050614276565b6000614107736f485c8bf6fc43ea212e93bbf8ce046c7f1cb475612d2e565b111561416b57736f485c8bf6fc43ea212e93bbf8ce046c7f1cb475600260006101000a81548173ffffffffffffffffffffffffffffffffffffffff021916908373ffffffffffffffffffffffffffffffffffffffff16021790555060019050614276565b600061418a7320e12a1f859b3feae5fb2a0a32c18f5a65555bbf612d2e565b11156141ee577320e12a1f859b3feae5fb2a0a32c18f5a65555bbf600260006101000a81548173ffffffffffffffffffffffffffffffffffffffff021916908373ffffffffffffffffffffffffffffffffffffffff16021790555060019050614276565b600061420d7351efaf4c8b3c9afbd5ab9f4bbc82784ab6ef8faa612d2e565b1115614271577351efaf4c8b3c9afbd5ab9f4bbc82784ab6ef8faa600260006101000a81548173ffffffffffffffffffffffffffffffffffffffff021916908373ffffffffffffffffffffffffffffffffffffffff16021790555060019050614276565b600090505b90565b600080600190508284511461428d57600080fd5b60008090505b8381101561431d578481815181106142a757fe5b602001015160f81c60f81b7effffffffffffffffffffffffffffffffffffffffffffffffffffffffffffff19168682602081106142e057fe5b1a60f81b7effffffffffffffffffffffffffffffffffffffffffffffffffffffffffffff19161461431057600091505b8080600101915050614293565b50809150509392505050565b6000806000806000606060206040519080825280601f01601f1916602001820160405280156143675781602001600182028038833980820191505090505b509050600060208960038151811061437b57fe5b602001015160f81c60f81b60f81c60ff160360040190506143a189826020856000613938565b9150606060206040519080825280601f01601f1916602001820160405280156143d95781602001600182028038833980820191505090505b5090506022820191506144158a60208c60018603815181106143f757fe5b602001015160f81c60f81b60f81c60ff160384016020846000613938565b905060208301519450602081015193506144328b601b8787614e7f565b80975081985050508573ffffffffffffffffffffffffffffffffffffffff16898051906020012060001c73ffffffffffffffffffffffffffffffffffffffff1614156144885760019750505050505050506144e0565b6144958b601c8787614e7f565b80975081985050508573ffffffffffffffffffffffffffffffffffffffff16898051906020012060001c73ffffffffffffffffffffffffffffffffffffffff16149750505050505050505b9392505050565b600080606060028560018601815181106144fd57fe5b602001015160f81c60f81b60f81c60ff16016040519080825280601f01601f1916602001820160405280156145415781602001600182028038833980820191505090505b50905061455385858351846000613938565b506060604080519080825280601f01601f1916602001820160405280156145895781602001600182028038833980820191505090505b50905061459c8660046040846000613938565b50606060626040519080825280601f01601f1916602001820160405280156145d35781602001600182028038833980820191505090505b509050600160f81b816000815181106145e857fe5b60200101907effffffffffffffffffffffffffffffffffffffffffffffffffffffffffffff1916908160001a90535061462987604188036041846001613938565b5060606040518060400160405280602081526020017ffd94fa71bc0ba10d39d464d0d8f465efeef0a2764e3887fcc9df41ded20f505c81525090506146748160006020856042613938565b5061471d6002836040518082805190602001908083835b602083106146ae578051825260208201915060208101905060208303925061468b565b6001836020036101000a038019825116818451168082178552505050505050905001915050602060405180830381855afa1580156146f0573d6000803e3d6000fd5b5050506040513d602081101561470557600080fd5b81019080805190602001909291905050508585614329565b945084614732576000955050505050506148f9565b606060405180606001604052806040815260200161544e604091399050606060426040519080825280601f01601f1916602001820160405280156147855781602001600182028038833980820191505090505b50905060fe60f81b8160008151811061479a57fe5b60200101907effffffffffffffffffffffffffffffffffffffffffffffffffffffffffffff1916908160001a9053506147d98a60036041846001613938565b50606060028b6045815181106147eb57fe5b602001015160f81c60f81b60f81c60ff16016040519080825280601f01601f19166020018201604052801561482f5781602001600182028038833980820191505090505b5090506148428b60448351846000613938565b506148eb6002836040518082805190602001908083835b6020831061487c5780518252602082019150602081019050602083039250614859565b6001836020036101000a038019825116818451168082178552505050505050905001915050602060405180830381855afa1580156148be573d6000803e3d6000fd5b5050506040513d60208110156148d357600080fd5b81019080805190602001909291905050508285614329565b975087985050505050505050505b92915050565b60008073ffffffffffffffffffffffffffffffffffffffff16600260009054906101000a900473ffffffffffffffffffffffffffffffffffffffff1673ffffffffffffffffffffffffffffffffffffffff16148061498757506000614985600260009054906101000a900473ffffffffffffffffffffffffffffffffffffffff16612d2e565b145b15614998576149966000612d39565b505b600260009054906101000a900473ffffffffffffffffffffffffffffffffffffffff1673ffffffffffffffffffffffffffffffffffffffff166338cc48316040518163ffffffff1660e01b8152600401602060405180830381600087803b158015614a0257600080fd5b505af1158015614a16573d6000803e3d6000fd5b505050506040513d6020811015614a2c57600080fd5b810190808051906020019092919050505073ffffffffffffffffffffffffffffffffffffffff16600160009054906101000a900473ffffffffffffffffffffffffffffffffffffffff1673ffffffffffffffffffffffffffffffffffffffff1614614b7757600260009054906101000a900473ffffffffffffffffffffffffffffffffffffffff1673ffffffffffffffffffffffffffffffffffffffff166338cc48316040518163ffffffff1660e01b8152600401602060405180830381600087803b158015614afb57600080fd5b505af1158015614b0f573d6000803e3d6000fd5b505050506040513d6020811015614b2557600080fd5b8101908080519060200190929190505050600160006101000a81548173ffffffffffffffffffffffffffffffffffffffff021916908373ffffffffffffffffffffffffffffffffffffffff1602179055505b6000600160009054906101000a900473ffffffffffffffffffffffffffffffffffffffff1673ffffffffffffffffffffffffffffffffffffffff16632ef3accc86856040518363ffffffff1660e01b81526004018080602001838152602001828103825284818151815260200191508051906020019080838360005b83811015614c0e578082015181840152602081019050614bf3565b50505050905090810190601f168015614c3b5780820380516001836020036101000a031916815260200191505b509350505050602060405180830381600087803b158015614c5b57600080fd5b505af1158015614c6f573d6000803e3d6000fd5b505050506040513d6020811015614c8557600080fd5b81019080805190602001909291905050509050823a02670de0b6b3a764000001811115614cb8576000801b915050614e5e565b6060614cc385614ec3565b9050600160009054906101000a900473ffffffffffffffffffffffffffffffffffffffff1673ffffffffffffffffffffffffffffffffffffffff1663c55c1cb68360008985896040518663ffffffff1660e01b8152600401808581526020018060200180602001848152602001838103835286818151815260200191508051906020019080838360005b83811015614d68578082015181840152602081019050614d4d565b50505050905090810190601f168015614d955780820380516001836020036101000a031916815260200191505b50838103825285818151815260200191508051906020019080838360005b83811015614dce578082015181840152602081019050614db3565b50505050905090810190601f168015614dfb5780820380516001836020036101000a031916815260200191505b5096505050505050506020604051808303818588803b158015614e1d57600080fd5b505af1158015614e31573d6000803e3d6000fd5b50505050506040513d6020811015614e4857600080fd5b8101908080519060200190929190505050925050505b9392505050565b8060039080519060200190614e7b92919061536d565b5050565b60008060008060405188815287602082015286604082015285606082015260208160808360006001610bb8f192508051915050818193509350505094509492505050565b6060614ecd614f43565b614ed56153ed565b614ee181610400614f4f565b614eea81614f99565b60008090505b8351811015614f2c57614f1f848281518110614f0857fe5b602002602001015183614fa790919063ffffffff16565b8080600101915050614ef0565b50614f3681614fcc565b8060000151915050919050565b60405180590338823950565b6000819050600060208281614f6057fe5b0614614f795760208181614f7057fe5b06602003810190505b808360200181815250506040518084526000815281810160405250505050565b614fa4816004614fda565b50565b614fb48260028351614ffb565b614fc7818361513b90919063ffffffff16565b505050565b614fd7816007614fda565b50565b614ff7601f60058360ff16901b17836151e690919063ffffffff16565b5050565b60178111615027576150228160058460ff16901b60ff1617846151e690919063ffffffff16565b615136565b60ff81116150685761504c601860058460ff16901b17846151e690919063ffffffff16565b615062816001856152269092919063ffffffff16565b50615135565b61ffff81116150aa5761508e601960058460ff16901b17846151e690919063ffffffff16565b6150a4816002856152269092919063ffffffff16565b50615134565b63ffffffff81116150ee576150d2601a60058460ff16901b17846151e690919063ffffffff16565b6150e8816004856152269092919063ffffffff16565b50615133565b67ffffffffffffffff81116151325761511a601b60058460ff16901b17846151e690919063ffffffff16565b615130816008856152269092919063ffffffff16565b505b5b5b5b5b505050565b6151436153ed565b826020015183600001515183510111156151735761517283600261516c8660200151865161528d565b026152a9565b5b60008060008451905085518051602081830101945086518101825260208701935050505b602081106151ba5781518352602083019250602082019150602081039050615197565b60006001826020036101000a039050801983511681855116818117865250508694505050505092915050565b8160200151600183600001515101111561520c5761520b8260028460200151026152a9565b5b815180516020818301018381536001820183525050505050565b61522e6153ed565b83602001518460000151518301111561525c5761525b84600261525587602001518661528d565b026152a9565b5b60006001836101000a0390508451805184818301018684198251161781528582018352505050849150509392505050565b60008183111561529f578290506152a3565b8190505b92915050565b6060826000015190506152bc8383614f4f565b6152c6838261513b565b50505050565b6040518060600160405280600073ffffffffffffffffffffffffffffffffffffffff168152602001600081526020016000151581525090565b6040518060800160405280600073ffffffffffffffffffffffffffffffffffffffff1681526020016000815260200160008152602001600080191681525090565b60405180608001604052806004905b60608152602001906001900390816153555790505090565b828054600181600116156101000203166002900490600052602060002090601f016020900481019282601f106153ae57805160ff19168380011785556153dc565b828001600101855582156153dc579182015b828111156153db5782518255916020019190600101906153c0565b5b5090506153e99190615407565b5090565b604051806040016040528060608152602001600081525090565b61542991905b8082111561542557600081600090555060010161540d565b5090565b9056fe536166654d6174683a206d756c7469706c69636174696f6e206f766572666c6f777fb956469c5c9b89840d55b43537e66a98dd4811ea0a27224272c2e5622911e8537a2f8e86a46baec82864e98dd01e9ccc2f8bc5dfc9cbe5a91a290498dd96e450726f7661626c65207175657279207761732073656e742c207374616e64696e6720627920666f722074686520616e737765722e2e2ea265627a7a72315820facc6f21060922e394d6e61e60ac6d5044edbf6617cfd3d45f00374ef27417aa64736f6c634300050c0032",
  "source": "pragma solidity 0.5.12;\n\nimport \"./Ownable.sol\";\nimport \"./Destroyable.sol\";\nimport \"./provableAPI.sol\";\nimport \"./SafeMath.sol\";\n\ncontract CoinToss is Ownable, usingProvable, Destroyable {\n\n  using SafeMath for uint256;\n\n  uint256 public balance;\n\n  modifier betFunding(uint256 minAmount){\n    require(msg.value >= minAmount,\"Not enough ETH sent!\");\n        _;\n    }\n\n  modifier contractFunding(uint256 minAmount){\n    require(msg.value >= minAmount,\"Not enough ETH sent!\");\n        _;\n    }\n//@State of game\n  struct State {\n    address payable player;\n    uint256 value;\n    uint256 result;\n    bytes32 queryId;\n  }\n  //@Information about player\n  struct Play {\n    address payable uAddress;\n    uint256 uBalance;\n    bool inGame;\n  }\n\n  uint256 public constant MAX_INT_FROM_BYTE = 256;\n  uint256 public constant NUM_RANDOM_BYTES_REQUESTED = 1;\n\n  mapping(bytes32 => State) public stateInfo;\n  mapping(address => Play) public playInfo;\n\n  event PlayerDepositDone(address fromAcc, uint256 newBal);\n  event BalanceBefore (uint256 balBef);\n  event PlayPlaced(address indexed player, bytes32 indexed _queryId, uint256 value);\n  event LogNewProvableQuery(string description, bytes32 _queryId);\n  event callBackFailed(string description);\n  event callBackPassed(bytes32 _queryId, uint8 result);\n  event BalanceAfter(uint256 balAft);\n  event GeneratedNumber(uint256 result);\n  event Withdrawn(address toAcc, uint256 amount);\n  event DepositDone(address fromAcc,uint256 amount);\n  //event ContractBalWithdrawn(address toAcc, uint256 amount);\n\n  constructor() payable public {\n     provable_setProof(proofType_Ledger);\n     }\n//@Add funds and create Play struct\n  function addPlayerFunds() public payable betFunding (0.1 ether) {\n    require (msg.value <= balance, \"Wait for contract funding\");\n    Play memory newPlay;\n    newPlay.uAddress = msg.sender;\n    newPlay.uBalance = playInfo[msg.sender].uBalance;\n    newPlay.inGame = playInfo[msg.sender].inGame;\n    playInfo[msg.sender] = newPlay;\n    playInfo[msg.sender].uBalance += msg.value;\n    emit PlayerDepositDone(playInfo[msg.sender].uAddress, playInfo[msg.sender].uBalance);\n  }\n//@Put value and initiate bet after checks\n  function bet(uint256 value) public {\n    uint256 qPrice = provable_getPrice(\"Random\");\n    require(playInfo[msg.sender].uBalance > value + qPrice, \"Increase user balance\");\n    require(playInfo[msg.sender].inGame == false, \"Wait for function to process\");\n    playInfo[msg.sender].inGame = true;\n\n    uint256 balBefore = playInfo[msg.sender].uBalance;\n    emit BalanceBefore(balBefore);\n    uint256 yfvalue = value + qPrice;\n    playInfo[msg.sender].uBalance = playInfo[msg.sender].uBalance.sub(yfvalue);\n    balance = balance.add(yfvalue);\n\n\n\n    oracleRandom(msg.sender, value);\n  }\n  //@Request number and create State struct\n   function oracleRandom(address payable player, uint256 value) public payable {\n\n     uint256 QUERY_EXECUTION_DELAY = 0;\n     uint256 GAS_FOR_CALLBACK = 200000;\n     // bytes32 _queryId = testRandom();\n      bytes32 _queryId = provable_newRandomDSQuery(\n            QUERY_EXECUTION_DELAY,\n            NUM_RANDOM_BYTES_REQUESTED,\n            GAS_FOR_CALLBACK\n     );\n\n    State memory newState;\n    newState.player = msg.sender;\n    newState.value = value;\n    newState.result;\n    newState.queryId = _queryId;\n\n    stateInfo[_queryId] = newState;\n\n    emit PlayPlaced(player, _queryId, newState.value);\n    emit LogNewProvableQuery(\"Provable query was sent, standing by for the answer...\", _queryId);\n   }\n//@Call back with random number from infura.io\n  function __callback(bytes32 _queryId,string memory _result,bytes memory _proof) public {\n    require(msg.sender == provable_cbAddress());\n\n    if (provable_randomDS_proofVerify__returnCode(\n                _queryId,\n                _result,\n                _proof\n            ) != 0\n        ) {\n            emit callBackFailed(\"Callback failed\");\n        } else {\n\n\n    uint256 firstResult = uint256(keccak256(abi.encodePacked(_result)));\n    uint8 result = uint8(firstResult.mod(2));\n    stateInfo[_queryId].result = result;\n    processResult(result, _queryId);\n    emit callBackPassed(_queryId, result);\n    delete stateInfo[_queryId];\n  }\n}\n//@Processing result of the game\n  function processResult(uint8 result, bytes32 _queryId) public {\n\n    address payable _player = stateInfo[_queryId].player;\n    playInfo[_player].inGame = false;\n    uint256 _value = stateInfo[_queryId].value;\n    uint256 payout = _value.mul(2);\n\n    if (result == 1){\n      playInfo[_player].uBalance = playInfo[_player].uBalance.add(payout);\n      balance.sub(payout);\n      assert(result == 0 || result == 1);\n    } else {\n      assert(result == 0 || result == 1);\n    }\n\n    uint256 balAfter = playInfo[_player].uBalance;\n    emit BalanceAfter(balAfter);\n    emit GeneratedNumber(result);\n  }\n  //@Only for testing\n  function reset() public onlyOwner returns (bool){\n    playInfo[msg.sender].inGame = false;\n  }\n  //@Balance of contract by default\n  function getBalance() public view returns (uint256){\n    return address(this).balance;\n  }\n  //@Balance of user, saved in Play struct\n  function getUserBalance() public view returns (uint256){\n    return playInfo[msg.sender].uBalance;\n  }\n  //@Withdraw all user Balance from Smart Contract\n  function withdrawUserBalance() public returns (uint256){\n    require(playInfo[msg.sender].inGame == false);\n    require(playInfo[msg.sender].uBalance > 0, \"Nothing to withdraw.\");\n    uint256 u = playInfo[msg.sender].uBalance;\n    playInfo[msg.sender].uBalance = 0;\n    msg.sender.transfer(u);\n\n    assert(balance >= playInfo[msg.sender].uBalance);\n    emit Withdrawn(msg.sender, u);\n  }\n  //@Fund initial balance\n  function fund() public payable onlyOwner contractFunding (0.5 ether){\n    balance += msg.value;\n    emit DepositDone(owner, msg.value);\n  }\n  //@Withdraw all contact balance\n  function withdrawAll() public onlyOwner returns (uint256){\n    uint256 toTransfer = balance;\n    balance = 0;\n    msg.sender.transfer(toTransfer);\n    //emit ContractBalWithdrawn(owner, toTransfer);\n  }\n//@Only for testing\n  // function testRandom() private returns (bytes32){\n  //   bytes32 _queryId = bytes32(keccak256(abi.encodePacked(msg.sender)));\n  //   __callback(_queryId, \"1\", bytes(\"test\"));\n  //   emit LogNewProvableQuery(\"Provable query was sent, standing by for the answer...\", _queryId);\n  //   return _queryId;\n  // }\n  // function testRandom() private view returns (uint8) {\n\t// \tuint256 firstRes = uint256(keccak256(abi.encodePacked()));\n\t// \tuint8 result = uint8(firstRes.mod(251));\n\t// \treturn result;\n  //   }\n}\n",
  "sourcePath": "/home/bipp/CoinToss/Final/CoinTossFinal/contracts/CoinToss.sol",
  "compiler": {
    "name": "solc",
    "version": "0.5.12+commit.7709ece9.Emscripten.clang"
  },
  "schemaVersion": "3.0.19",
  "updatedAt": "2020-12-31T18:33:10.215Z",
  "networkType": "ethereum",
  "devdoc": {
    "methods": {
      "__callback(bytes32,string)": {
        "details": "The following `__callback` functions are just placeholders ideally     meant to be defined in child contract when proofs are used.     The function bodies simply silence compiler warnings."
      }
    }
  },
  "userdoc": {
    "methods": {}
  }
}